:020000040800F2
:10000000600E00205D01000865010008670100081E
:10001000690100086B0100086D0100080000000084
:100020000000000000000000000000006F01000858
:10003000710100080000000073010008750100084C
:100040007701000877010008770100080000000030
:10005000000000007904000877010008770100081B
:100060007701000800000000770100087701000810
:100070007701000800000000770100087701000800
:1000800077010008770100080000000077010008F0
:1000900077010008000000000000000000000000E0
:1000A00000000000000000000000000077010008D0
:1000B0007701000877010008770100087701000840
:1000C00000F002F800F03AF80AA090E8000C824430
:1000D0008344AAF10107DA4501D100F02FF8AFF20D
:1000E000090EBAE80F0013F0010F18BFFB1A43F016
:1000F0000103184794220000B4220000103A24BFE4
:1001000078C878C1FAD8520724BF30C830C144BF7C
:1001100004680C60704700000023002400250026BE
:10012000103A28BF78C1FBD8520728BF30C148BF5A
:100130000B6070471FB51FBD10B510BD00F044F82F
:100140001146FFF7F7FF01F0ADF900F062F803B4D4
:10015000FFF7F2FF03BC00F065F800000948804794
:1001600009480047FEE7FEE7FEE7FEE7FEE7FEE799
:10017000FEE7FEE7FEE7FEE704480549054A064BB1
:1001800070470000710A0008C100000860080020E4
:10019000600E0020600A0020600A0020704770474F
:1001A000704710B500F008F8006810BD10B504469F
:1001B00000F002F8046010BD0048704700080020FD
:1001C00000487047000800207546FFF7F9FFAE466B
:1001D00005006946534620F00700854618B020B553
:1001E000FFF7CAFFBDE820404FF000064FF00007C0
:1001F0004FF000084FF0000B21F00701AC46ACE8CF
:10020000C009ACE8C009ACE8C009ACE8C0098D463B
:10021000704710B50446AFF300802046BDE810409B
:10022000FFF795BF01491820ABBEFEE7260002008C
:10023000704710B5012000F057FB00F073FB012858
:1002400017D10921022000F0DFFA012000F0D6FAD0
:1002500000F0FAFA01280AD1002000F015FB012075
:1002600000F00CFB4FF4807000F01AFB03E000BFBD
:10027000FEE700BFFEE710BD0146054A106811B158
:1002800040F0080001E020F00800014A10607047CB
:10029000000009400146034A106820F002000844AB
:1002A00010607047000009400EB50121480600F0BB
:1002B00053FB00208DF80A0001208DF80200ADF8F4
:1002C000000000208DF804008DF803006946024804
:1002D00000F066F90EBD000000800C4010B5012151
:1002E000880400F039FB00F007F80020FFF7D2FF88
:1002F0000120FFF7C1FF10BD00200249486088605F
:100300000860704700000940012904D101228240A1
:10031000034B9A6203E001228240014BDA6270478C
:10032000008002408268B2F1406F02D102680A6028
:1003300007E08269521E83689B0E9A4003681A4444
:100340000A604269042A03D142680C324A600EE016
:10035000C268B2F1404F02D142684A6007E0826948
:10036000521EC3689B0F9A4043681A444A60D0E902
:1003700003231A4383681A43436A1A43036A1A43DE
:10038000C3691A4383695B1E42EA031243691A4335
:100390008A60704710B50121264800F0DDFA4FF061
:1003A000FF30254908604FF0E021C1F8800100F0DE
:1003B00053F8224800F0BCF821482249086022483E
:1003C000486020208861400588604FF04040C86048
:1003D0004FF0885008614FF4A030C8614FF480207E
:1003E0000862C0004862012048610846134908605D
:1003F00000200873487388730A2000F04FF84FF408
:10040000806012494862C86101210A20FFF77CFF21
:1004100005200121002807DA4A07140E0C4A00F0D3
:100420000F031B1FD45403E04A07130E094A135449
:1004300000BF10BD2001100080E200E03800002065
:100440004800002010000020080009400080024001
:1004500018ED00E000E400E00020064948608860F4
:100460004861401EC8614862C8624863C863012091
:10047000C86470470080024010B50120044908702C
:1004800020200449886104490A2000F007F810BDC3
:1004900004000020100000203800002070B5044641
:1004A0000D46214821498860286828B11E4A02EB80
:1004B00004112868FFF736FF686840B11B48C06820
:1004C00000EB041631466868FFF72CFF00BFA868F0
:1004D00040F0010015494860687B012802D1A04026
:1004E000886103E00120A0401049C8610120A040BC
:1004F0000E4948620120A0408862A87B18B90120FB
:10050000A040486303E00120A04008490863287B1D
:10051000012803D1A0400549886303E00120A040E1
:100520000249C86370BD0000000400200080024042
:1005300000210160416081600173417381737047E4
:100540000EB50121880500F007FA00208DF808009B
:1005500001208DF80A008DF802000F20ADF8000090
:1005600000208DF8040001208DF8030003208DF891
:1005700009006946014800F013F80EBD00000B4069
:1005800010B500F0F9F900F019F900F029FCFFF7B7
:1005900001FFFFF789FEFFF7A1FE00F089FA10BD09
:1005A0002DE9FE4F4768D0F808C0D0F80C80D0F88D
:1005B0001090D0F814A0CDF808A0D0F818A0CDF86D
:1005C00004A0D0F81CA0CDF800A000220123032530
:1005D0004FF001160C885FE004F0010ABAF1000F39
:1005E00055D027EA030A91F802B00BFA02FB4AEA57
:1005F0000B0791F808A04FEA420B0AFA0BFA2CEA13
:10060000050B4AEA0B0C28EA030A91F80AB00BFA28
:1006100002FB4AEA0B0829EA060A91F803B002F144
:10062000100E0BFA0EFB4AEA0B0A91F804B00BFA13
:1006300002FB4AEA0B09DDF808A02AEA060A91F84B
:1006400005B00BFA0EFB4AEA0B0A91F806B00BFA5A
:1006500002FB4AEA0B0ACDF808A091F809A04FEA7C
:10066000420B0AFA0BFADDF804B02BEA050B4AEA52
:100670000B0ACDF804A0DDF800A02AEA030A91F8DD
:1006800007B00BFA02FB4AEA0B0ACDF800A05B00A8
:10069000AD007600521C6408002C9DD1DFF8C4A088
:1006A000504502D14FF01F0A01E04FF0000A27EA3F
:1006B0000A0AC0F804A0DFF8ACA0504502D14FF000
:1006C0001F0A01E04FF0000A2CEA0A0AC0F808A04D
:1006D000DFF890A0504502D14FF01F0A01E04FF023
:1006E000000A28EA0A0AC0F80CA0DFF878A05045F2
:1006F00002D14FF01F0A01E04FF0000A29EA0A0A6E
:10070000C0F810A0DFF85CA0504502D14FF01F0BDD
:1007100001E04FF0000BDDF808A02AEA0B0AC0F850
:1007200014A0DFF840A0504502D14FF01F0B01E0AC
:100730004FF0000BDDF804A02AEA0B0AC0F818A05D
:10074000DFF820A0504502D14FF01F0B01E04FF021
:10075000000BDDF800A02AEA0B0AC0F81CA0BDE8D7
:10076000FE8F000000000C400268054B984201D14A
:100770001F2300E000230B439A43026070470000F0
:1007800000000C400268054B984201D11F2300E095
:1007900000239A430A4302607047000000000C40A7
:1007A0004FF6FF71018000218170C17001714171AC
:1007B0008171C17101724172817270472DE9F041FE
:1007C0000C4D00240DE0204601F0F4FB07462946BD
:1007D00001F004FC064601F0CDFB074921F81400A6
:1007E000641C1F2CEFD3044800880349C887BDE868
:1007F000F081000000F0FF42C800002001490860BD
:10080000704700008800404210B502460C4BD86883
:1008100020F003001043D860586820F4706040EA6C
:1008200001205860074B1B6843B10123054C241D70
:1008300023600023034C883CC4F88C3010BD0000BA
:10084000000002408800404238B50020009000BF00
:10085000212000F02FF805460098401C00900098D9
:10086000B0F5C06F01D2002DF2D0212000F022F8A7
:1008700008B1012400E00024204638BD0149086089
:1008800070470000880140420146044AD06820F0C9
:10089000F00040EA0110D060704700000000024004
:1008A0000146034AD06820F440700843D060704786
:1008B0000000024010B5014601F0E003202B02D1F8
:1008C000074B1A6801E0074BDA6B01F01F040123A4
:1008D000A34013400BB1012000E0002010BD000038
:1008E0000000024000800D400D49896821F003019D
:1008F0000B4A9160012802D002280ED106E0084977
:10090000896841F00101064A916007E0044989685D
:1009100041F00301024A916000E000BF00BF704750
:100920000000024038B50020009000BF2220FFF7F1
:10093000C1FF05460098401C00900098B0F5C06FBC
:1009400001D2002DF2D02220FFF7B4FF08B101241C
:1009500000E00024204638BD29B1064AD26902438E
:10096000044BDA6104E0034AD2698243014BDA6145
:1009700070470000000002402DE9F04F85B0154897
:1009800004904FF0000A1FE0504601F013FB019065
:10099000049901F023FB834601F0C0FACDE902017E
:1009A00000F0E8FD064600220B4B01F0C3F80446B8
:1009B0000022094B00F02EFE804601F063F8074943
:1009C00021F81A000AF1010ABAF1200FDCD305B0B0
:1009D000BDE8F08FDB0F493E00FC9F40480000203F
:1009E00030B5204CE46804F00204022C01D11E480A
:1009F00000E01D481B4CE46804F0010404B1400809
:100A00000146184CE46804F00404042C05D1154C8C
:100A10006468C4F30324631C5943124CE468C4F3B0
:100A2000012424B1012C06D0022C13D10DE00E4C70
:100A30000E4D2C6013E00B4CE468C4F30314641CEB
:100A4000B1FBF4F2094C226009E04FF40044074D79
:100A50002C6004E049F64044044D2C6000BF00BF08
:100A600030BD00000000024000127A000C0000209F
:100A700000B50D480D49C8610846C0680020C8602F
:100A8000084640680020486008468068002088606A
:100A90000846006900200861084640690020486156
:100AA000FFF79EFF00BD000010000008000002409C
:100AB00000B587B01E4800F070F901218803FFF7E8
:100AC0004BFF00211A4800F035F80020ADF8060071
:100AD0001820ADF808000020ADF80A00ADF80C00B1
:100AE000ADF80E00ADF81000ADF81200ADF814002E
:100AF000ADF81600ADF81800ADF81A0001A90C48C1
:100B000000F019F901220221094800F03DF9012104
:100B1000074800F006F905200121814042099200B2
:100B200002F1E022C2F8001100BF07B000BD0000D2
:100B3000000007400246104B586A104B9A4205D1FC
:100B400020F0FF00084340F0807012E00C4B9A4206
:100B500006D120F47F4040EA012040F0007008E018
:100B6000084B9A4205D120F47F0040EA014040F052
:100B70008060014B5862704700000240000007404F
:100B8000008007400000084000B595B001214FF4F7
:100B90000100FFF7E1FE00213148FFF7CBFF12A86B
:100BA000FFF7FEFD02208DF8500000208DF84A006E
:100BB00001208DF852000420ADF8480012A9294800
:100BC000FFF7EEFC264800F0E8F80CA800F0CEF89D
:100BD0000020ADF832004FF6FF70ADF83400002071
:100BE000ADF838008020ADF83600C000ADF83A000E
:100BF0000020ADF83E00ADF83C00ADF84000ADF887
:100C00004200ADF84400ADF846000CA9144800F0CD
:100C100092F806A800F077F80020ADF818004FF41D
:100C20000040ADF81A000020ADF8260006A90C48D7
:100C300000F01AF801A800F05BF80020ADF80400FD
:100C4000ADF80600ADF80800ADF80A0001A90448A7
:100C500000F02DF80121024800F063F815B000BD46
:100C60000000084000800B4070B54D88CE883544A8
:100C70000E8935444E8935448E8905EB8615CE891B
:100C800035440E8AAC198D880DB104F500540A88DC
:100C900000F1200545F822404D8ACE8AAB198D8A95
:100CA00005B11B1D00F1600545F8223070BD70B51F
:100CB0004D882D018E8805EB8605CE8835440E893A
:100CC00005EB06354E8905EB86258E8905EB062357
:100CD0000A8800F1300545F822300D8ACE8905EBEF
:100CE00006254E8AAC1900F1400545F8224070BD3A
:100CF000002141808180C180018141818181C18148
:100D00000182418270470021018041808180C18041
:100D1000018141818181C181018241828182C182BF
:100D200070470A46C16812B141F0010101E021F0AB
:100D30000101C160704730B50C8804604C88446084
:100D40008C888460CC880D892C444D892C448D89F5
:100D50002C44CD896319C3604C8A0D8A04EB0514B9
:100D60008D8A2C44CD8A6219026530BD0021018034
:100D700041808180C180018141818181C181018265
:100D800041828182C182704710B51346C26D0BB19A
:100D90000A4300E08A43C26510BD0021C1600160C2
:100DA00041608160016241628162C16201634163AD
:100DB0008163C163016641668166C166016141610B
:100DC0008161C161016741678167C16701644164F5
:100DD0008164C164016541658165C165704700003A
:100DE0002DE9F041134D00240DE0204601F0E2F81A
:100DF0000746294601F0F2F8064601F0BBF80E4915
:100E000021F81400641C102CEFD310240EE0C4F160
:100E1000200001F0CFF80746294601F0DFF806462A
:100E200001F0A8F8044921F81400641C202CEED32A
:100E3000BDE8F08100F07F4388000020490050EABF
:100E4000C12018BF04204A0D18BF40F0010040F235
:100E5000FF72B2EB515F08BF40F00200012808BFEB
:100E6000052070472DE9F74F144694B00021C4E9DE
:100E700002111599079121F00045C9498D4206DC00
:100E80001599C4E9000117B00020BDE8F08FC549ED
:100E9000DFF814A3A9423CDD0799C44E0029C44FD2
:100EA000C44A1599534619DD00F04EFF554506D04A
:100EB000C14AC24B00F048FFC4E900010AE04FF00C
:100EC000D352BE4B00F040FF32463B4600F03CFFA1
:100ED000C4E9000117B00120BDE8F08F00F09AFBD3
:100EE000554506D0B44AB54B00F094FBC4E9000167
:100EF0000AE04FF0D352B14B00F08CFB32463B4638
:100F000000F088FBC4E9000117B04FF0FF30BDE8E6
:100F1000F08FAB49A942159978DB21F00041834657
:100F20008846A84AA84B00F005FE0022A74B00F017
:100F300071FB00F077FD099000F0D1FD06460F46E9
:100F40009C4A534600F0F6FD43465A4600F0F0FE38
:100F500080468A46984A994B3046394600F0EAFD69
:100F60002A0D01250B924246534600F0E1FE032D67
:100F7000C4E9000139D00B98C1F30A51401A05EBBE
:100F800045111139814230DA9148C346784400EB6B
:100F90000510CDF80CA00C90D0E90023304639465E
:100FA00000F0C8FD02460B4604910690584603998E
:100FB00000F0CAFE80468A4602460B465846039910
:100FC00000F0C2FE049B069A00F0BEFE83460C9819
:100FD00003913946D0E90223304600F0ABFD5A4672
:100FE000039B00F0B1FE6D1CBDE707980028A2BF6F
:100FF000099817B0BDE8F08F616881F00041616029
:10100000099817B04042BDE8F08FFFE78446159875
:10101000C1F31301C0F30A50A0F2F5304FEA601893
:1010200000F01F06C6F120001390002006900790E4
:1010300041F4801E05206D4676B1664A08EB00013A
:101040007A4452F8213002EB8101B3404A68139987
:1010500022FA01F1194305E05F4908EB00027944E7
:1010600051F82210A1FB0E27A1FB0C131A449A423F
:1010700034BF0123002303EB070A05EB8003D3E908
:1010800001B70F448F4234BF0121002193448B44A8
:1010900011B1934502D903E0934501D2012100E04B
:1010A0000021C3E901B7514445F82010011EA0F109
:1010B0000100C1DC0298059F00F10050800F1290E2
:1010C0000298DDE90356800000F009FD83462846BA
:1010D0000D9100F01BFD6FF01D0201F07DF8CDE9D0
:1010E0000E01304600F012FD6FF03D0201F074F881
:1010F00080468A46384600F009FD6FF05D0201F037
:101100006BF8074642465346119100F083FADDE939
:101110000E2300F07FFA5A460D9B00F07BFA002563
:101120000E465A4628460D9B00F00EFEDDE90E23C2
:1011300000F00AFE4246534600F006FE3A46119B76
:1011400000F0F6FDDFF898A0244A534600F0F2FCC8
:1011500007468846234A244B3146284600F0EAFCDD
:101160003A46434600F056FA074688464FF0A842F2
:1011700053463146284600F0DDFC3A46434600F02F
:1011800049FA159A12F0004F04D0129A81F00041EA
:1011900052421292C4E90001129817B0BDE8F08FD4
:1011A000FB21E93F7CD90240FB21F93F7370032EFC
:1011B0008A19A33B000040543163621A61B4D03DE8
:1011C000FB21394183C8C96D305FE43F0000E03F37
:1011D000081300008412000066120000182D445409
:1011E000FB21F93D3326A611460B113C2DE9FF4D9D
:1011F00021F0004807460C46B8F1795F08DA00F0A4
:1012000011FC002801BF0020324904B0BDE8F08D78
:101210003A4623461046194600F08CFC0546024625
:101220002D480E460B460621784400F05DF82A460C
:10123000334600F07FFCDDE9022382468B463846C8
:10124000214600F077FC04460F4652465B4628468E
:10125000314600F06FFC22463B4600F075FD074624
:101260008A464FF0FF322846314600F0B5FF1B4A50
:1012700090450ADA3A46534600F066FD04B0002273
:10128000BDE8F04D134B00F053BD154A4245A8BFD1
:10129000A8F500154FF00004B8BF124D22462B46AA
:1012A00000F052FD0646884622462B46002009499A
:1012B00000F04AFD04460D463A4653463046414644
:1012C00000F042FD04B022462B46BDE8F04D00F090
:1012D0002FBD00000000F03F3C1000003333D33F2F
:1012E0000000E93F0000D23F2DE9F0414F1E00EB26
:1012F000C7010446D1E9000115461E4637F0060233
:101300000DD02A46334600F015FC7F1E04EBC703C0
:10131000D3E9002300F07EF937F00602F1D1022F65
:1013200025D0042F13D0062F18BFBDE8F0812A4620
:10133000334600F0FFFBD4E90A2300F06BF92A469C
:10134000334600F0F7FBD4E9082300F063F92A469E
:10135000334600F0EFFBD4E9062300F05BF92A46A0
:10136000334600F0E7FBD4E9042300F053F92A46A2
:10137000334600F0DFFBD4E9022300F04BF92A46A4
:10138000334600F0D7FBD4E90023BDE8F04100F07C
:1013900041B900002DE9FF4D054621F0004084B021
:1013A0000C46B0F1795F0BDA2846FFF747FD0428B9
:1013B00008BF00F06FF8284608B02146BDE8F08D60
:1013C0002A460B46104600F0B5FB06460F462A4655
:1013D000234600F0AFFB804626488A4632463B460D
:1013E00005217844FFF780FF83461098029160B38F
:1013F000214A224B4046514600F09CFBCDE90001BA
:101400005A4640465146029B00F094FB824688466D
:10141000DDE906014FF0FF3200F0DEFE52464346A2
:1014200000F092FC32463B4600F084FBDDE90623E7
:1014300000F08AFCDDE9002300F086FC08B02A46B3
:101440002346BDE8F04D00F073BC0B465A463046CB
:10145000394600F06FFB084A084B00F0DBF84246C3
:10146000534600F067FB08B02A462346BDE8F04D1E
:1014700000F0D0B87A0F0000495555555555C5BFF5
:10148000012200F0A9BE002213461046114600F0CA
:1014900071B90000024A0020110700F09DBE000053
:1014A00001FDFFFFFEF7C5FEFFF74AF8FFF768F8FA
:1014B000FFF76AFB52E02A480078012810D129483A
:1014C00000682949086000202649086024490870FE
:1014D00001212648FFF748F902212448FFF744F983
:1014E000214800685F2812D91F480068692805D282
:1014F0001F480068401C1E49086010E01C48006836
:1015000068B11B480068401E1949086007E0184888
:10151000006820B116480068401E1549086012484E
:1015200000685F2803D901211048FFF72BF90E4806
:101530000068692803D202210C48FFF723F90C4800
:1015400000680A280AD108210848FFF71BF904217E
:101550000648FFF709F9002005490860ABE70000DD
:1015600004000020000008400000002000000B40A4
:101570000800002000B5254B21F0004287B09A42B8
:1015800003DC0022134600922BE0214B9A4208D143
:1015900040B94FF00100FEF709FEFFF774FF07B0F6
:1015A00000BD03DBFFF76CFF07B000BD02AAFFF729
:1015B00059FC10F003014FF001000DD0012914D0A7
:1015C00002291AD00DF1080C9CE80F00FFF70EFE5F
:1015D00007B081F0004100BD0DF1080C00909CE8BF
:1015E0000F00FFF7D7FE07B000BD0DF1080C9CE817
:1015F0000F00FFF7FBFD07B000BD0DF1080C0090D8
:101600009CE80F00FFF7C6FEE2E70000FB21E93F80
:101610000000F07F10B591EA030F48BF83F000434C
:1016200000F19A83841A71EB030C05D2121943EB73
:101630000C03001B61EB0C01DFF824E14FEA1154AD
:10164000A4EB135C1EEA430F18BF9EEA445F73D0FD
:1016500023EA0E03DCF1200E21EA045143F4801347
:1016600032D322FA0CFE10EB0E0023FA0CFE41EBF3
:101670000E01CCF1200E03FA0EFE10EB0E0051F11C
:101680000001B1F5801FCCF1200E32D201EB0451E4
:1016900012FA0EF2BDE8104058BF7047401C38BF28
:1016A0005FEA420218BF7047002814BF20F0010013
:1016B00041F100014FEA410313F5001F38BF7047A5
:1016C000A1F1C04100F02EBB012A43EB0302ACF1B3
:1016D000200CDCF11F0E32BF4FF0000E23FA0CF38A
:1016E00010EB030041EB0451B4EB115FD0D0A1EB40
:1016F000045101F5801149085FEA300001EB045103
:101700000ED350F1000038BF12FA0EFE08D1BDE82A
:101710001040C9E7401C38BF5FEA4202CAD1C3E7A4
:10172000BDE810404FEA410313F5001F38BF704772
:10173000A1F1C04100F0F6BA9EEA445F08D011EA78
:101740005E0FBDE8104004BF01F00041002070476B
:10175000BDE8104070B500F097FA00BF64FBBE3ED4
:101760000000E0FF02494FF0000000F003BD00BFA1
:101770000000F87F2DE9C04130B4DFF8A0C23CEA98
:10178000111418BF3CEA131400F0EC8081EA030541
:101790001CEA111444EAD57418BF1CEA131500F0B2
:1017A000C780A4EB05044FF0004545EAC12145EA96
:1017B000C32341EA505143EA525304F17F749942E2
:1017C00004F500344FEAC0204FEAC22208BF90421D
:1017D00000F09C804FEA13650FF24016765D4FEAE9
:1017E000134506FB05F7C7F1807706FB07F74FEABD
:1017F000D737A7FB03687642C8F58038A7FB06CE2B
:1018000038BFA8F1010807FB08E64FF0000EA6FB61
:10181000028CE6FB03CEDCF1000CCEF1004E38BFAB
:10182000AEF1010EA6FB0C584FF000074FF000057B
:10183000E6FB0E87A1FB08C6A0FB07CE16EB0E0643
:1018400045F10005E1FB076515F1E04E7EBFA4F50B
:1018500080345FEA46066D4116F1800745F10005C8
:101860004FEA17274FEA066647EA0567A6F1DE4604
:10187000B6F1805F4FEA15251FD9384624F0010CD8
:1018800005EBC471BCF1FE6F01EB0C1102D8F0BC8A
:10189000BDE8008124425CBF01F5801E9EEAC47F42
:1018A00002D4F0BCBDE80081244238D4F0BCA1F1E0
:1018B000C041BDE8004100F035BA4FEAD22242EA09
:1018C00043524FEAD323A7FB02864FEAD02040EAD7
:1018D000415007FB03661EEA0E0F4FEAD12105FBBC
:1018E000026658BFA6EB0056B6EB00564FEA520E02
:1018F0004EEAC37E18EB0E0E56EB530EBDD518EB19
:1019000002085E417F1C55F10005B6E74FF48015D3
:101910004FF000074FF000064FF00008ADE7F0BCB5
:101920004FF0000001F1C04101F00041BDE800812D
:1019300011EA0C1F0CEA131500D00CE013EA0C1F7F
:1019400000F025804FF00000F0BC81EA030101F0B7
:101950000041BDE80081F0BCBDE8004181EA03011F
:1019600000F0E0B9F0BCBDE8004170B500F08CF9C2
:10197000097EFC3E00F007B881EA03014FF0000049
:1019800001F00041704781EA030100F0CBB9F0BCDF
:10199000BDE800414FF0000021497047FFFDFBF911
:1019A000F7F5F4F2F0EEEDEBE9E8E6E4E3E1E0DE92
:1019B000DDDBDAD8D7D5D4D3D1D0CFCDCCCBCAC804
:1019C000C7C6C5C4C2C1C0BFBEBDBCBBBAB9B8B72B
:1019D000B6B5B4B3B2B1B0AFAEADACABAAA9A8A81E
:1019E000A7A6A5A4A3A3A2A1A09F9F9E9D9C9C9BEC
:1019F0009A99999897979695959493939291919097
:101A00008F8F8E8E8D8C8C8B8B8A89898888878727
:101A10008685858484838382828181800000FF079C
:101A20000000F87F4FEA41034FEA5353A3F5806368
:101A3000D3F11E03C8BFD3F1210C0CDD4FF00042DF
:101A400042EAC12242EA505232FA03FC8CEAE17CBB
:101A5000ACEBE1707047102BC4BF0020704703F55A
:101A6000787CBCF1FF3F04D06FF0004282EA210095
:101A7000704770B500F008F9499224800020704743
:101A8000F2E700004FEA1153A3F58063D3F11E0380
:101A9000A8BFD3F1200C08DB4FF0004242EAC1227C
:101AA00052EA505232FA03F0704709420BD4102B1D
:101AB000C4BF0020704703F5787CBCF1FF3F05D020
:101AC0004FF0FF3070474FF00000704770B500F0E6
:101AD000DBF800BF4992248000207047F0E710F047
:101AE000004248BF4042B0FA80F310FA03F10AD036
:101AF000C3F11D0303F580634FEA415002EB03522B
:101B000002EBD12170474FF000007047B0FA80F32C
:101B100010FA03F10AD0C3F11D0303F580634FEA05
:101B200041504FEA035202EBD12170474FF00000C1
:101B300070470000DFF848C170B51CEA111E1EBFD7
:101B40001CEA13159EEA0C0F95EA0C0F00F06F804B
:101B500081EA030423EA4C134EEAD47E21EA4C11B5
:101B600041F4801143F48013AE44A1FB024CA0FB6E
:101B70000365AEF17F7E361955EB0C05A1FB034CD6
:101B80004CF10003A0FB021C16EB0C06654153F15F
:101B90000003094218BF46F0010613F4007F0BD181
:101BA0004FEA03314FEA0530340341EA155140EA68
:101BB00016506FF003020AE04FEAC3214FEAC52036
:101BC000F40241EA555140EA56506FF0020202EB2E
:101BD0002E4201EB025585EACE710AD05FEA440C31
:101BE00018BF24F0004450F1000041F1000120EA48
:101BF000D47040F2FE7C624500D270BDA84214BF92
:101C00004FF080444FF04044002E08BF0024BEF146
:101C1000806FA8BFA1F1C041BDE8704080F2828012
:101C20004FF0000001F1C04101F0004170479EEA11
:101C30000C0F0CEA131518BF95EA0C0F06D04FF0E5
:101C4000000081EA030E0EF0004170BD00F01CF8A8
:101C50008900013E00F007B800F009B84FEA430CD4
:101C60005FEA5C5C08D081EA030100F05BB84FEAF0
:101C7000410C5FEA5C5CF6D14FF00000014970470F
:101C80000000FF070000F87F0EF1020E2EF0030E99
:101C90005EF8046B364205D4012A43EB030515F5C3
:101CA000001F12D8012841EB010C1CF5001F0CD8B5
:101CB0000ED14FEAD17C15F5001F0CEB4C0C0CF14A
:101CC000020C08BF4CEBD37C04E04FF0080C01E0A1
:101CD0004FEAD37C0CEB4C0526FA05F606F0070616
:101CE000B6F1040C06D20EEB860CBDE870404CF049
:101CF000010C6047DFE80CF0090B02024FF00041D5
:101D00004FF00000A1F5002170BD194610460128D2
:101D100051EB010418BFD4F5001484BF002001F07A
:101D2000004170BD0808A0F500114FEA310170476D
:101D300091EA030F10B581F000413FF573AC83F0D9
:101D4000004300F009B8000010B591EA030F48BF46
:101D500083F000433FF566AC841A71EB030C07D2A5
:101D600012198CF0004C43EB0C03001B61EB0C01CF
:101D7000DFF8A4E14FEA1154A4EB135C1EEA430F11
:101D800018BF9EEA445F00F0B08023EA6E0352421F
:101D900021EA0451C3EB6E0338BF5B1EDCF1200E59
:101DA00025D322FA0CFE10EB0E0043FA0CFE41EB99
:101DB0000E01CCF1200E03FA0EFE10EB0E0051F1D5
:101DC0000001CCF1200E29D412FA0EF201EB0451DD
:101DD000BDE8104058BF7047401C1CBFB2F1004F17
:101DE000704700280CBF491C20F00100704712EB1F
:101DF000020E43EB030218BF4FF0010E4EEA4202FF
:101E0000ACF1200CDCF11E0E54D943FA0CFE10EBA1
:101E10000E0051F1FF31CCF11E0ED5D50EF1010EA1
:101E200012FA0EFE404141EB010101EB445C5FEA16
:101E30005C5C10D910EBDE7001EB045138BFBEF1D1
:101E4000004FBDE8104018BF704700280CBF491C68
:101E500020F00100704730D24FEAD42C11F5001168
:101E600024F400641BD0B1FA81F20B3AA41AA41E28
:101E7000D2F12003914030FA03F31943904001EB73
:101E8000CC71002C01EB0451BDE81040A8BF704795
:101E900001F1C0414FF0000001F000417047B0FA7D
:101EA00080F310FA03F100D110BDE41A173C480585
:101EB000C90AE4E701EB045110BD491001EB0451DC
:101EC000BDE810404FEA300002E04FF000017047DB
:101ED0004A0008BF0042F8D0B2F5001F28BF704783
:101EE00001F000414FF0000070479EEA445F07D0C8
:101EF00011EA5E0FBDE8104004BF002100207047CA
:101F0000BDE8104070B5FFF7BFFE00BF40DFF63EF2
:101F100083F00041104670470000E0FF43004FEAA5
:101F2000D30C4FEA3C0C43401FBF40070CF16051FB
:101F300013F0FE4F70471CF0006F03D100200CF02F
:101F4000004170470CF0004343EA507010B540EA7E
:101F5000CC0000F0C4F800BF000000924FEA00017E
:101F6000FFF7E0BE4FF000414FF00000A1F5002167
:101F700070470000C10DD1F19E0206DB4FEA00233D
:101F800043F0004323FA02F07047004207D54FEABE
:101F90004001B1F1FE4F02D24FF00000704710B582
:101FA00000F09DF849922480002070476FEA2000DD
:101FB00070470000B0FA80F310FA03F2C3F19D03FA
:101FC0000AD0D90501EB1220530638BF704700F143
:101FD000010008BF20F00100704700004FF47F0CA3
:101FE0001CEAD0121EBF1CEAD11392EA0C0F93EA2E
:101FF0000C0F00F0478090EA010F48BF42F4807256
:102000004FF0004C4CEA00204CEA012102EB0302A5
:10201000A0FB0113A2F50002002918BF43F0010341
:102020005B0028BF4FEA330342EB22425FEA132CE6
:102030004CEBC2502EBFBCEB436FB2F57C0F704728
:102040004FEA036CBCF1004F08BF20F00100B2F56D
:102050007C0F38BF70470BD582F0FF0212F5803F2E
:10206000C8BF704700F1C040D8BF00F000407047C3
:1020700000F5000C5FEA4C0C48BF7047B0F1C0405F
:1020800000F073B890EA010F0CEAD11348BF42F494
:102090008072624538BF634504D280EA010000F0D7
:1020A0000040704710B500F01AF800BF8900013EEB
:1020B00000F007B800F009B85FEA410C5FEA1C6C59
:1020C00008D080EA010000F050B85FEA400C5FEAF7
:1020D0001C6CF6D14FF00040A0F5800070470EF167
:1020E000020E2EF0030E5EF8044B244204D44FEA95
:1020F0004102B2F17F4F11D84FEA4003B3F17F4F55
:102100000CD80ED14FEAD07CB2F17F4F0CEB4C0CC7
:102110000CF1020C08BF4CEBD17C04E04FF0080C32
:1021200001E04FEAD17C0CEB4C0324FA03F404F0F9
:102130000704B4F1040C06D20EEB840CBDE8104089
:102140004CF0010C6047DFE80CF0070802024FF08A
:102150000040A0F5800010BD0846420018BFD2F133
:10216000807288BF00F0004010BDFF2141EAD050CE
:10217000C00570470CF00F03092B08BF082000F0C2
:1021800059800A2B0BD0082B18BF704708BF1CF0D2
:10219000400F0AD04FF000004FF0000170471CF0D4
:1021A000400F18BF4FF0004070471CF0100F08D0D0
:1021B00020F0704300F07F4242EAD3014FEA4370BF
:1021C000704700F0604021F07F4242EA000201F0D7
:1021D0007F4040EA727070474FF0FF0C4CF4E06CA7
:1021E0001CEA11531CBF9CEA030C9445C2BFDA429F
:1021F00001EB02517047002B0DD0BCF1000F0FD046
:10220000002A01F00041A4BF41F0E04141F07F61AC
:102210004FF00000704701F000414FF000007047A0
:1022200050EA01334FF09B0C18BF4CF0806C7FF4E8
:1022300099AA70471CF4801F11D01CF4E02F03D022
:102240006FEACC31490070474FF04050EFF3008205
:1022500022F0704242EA000282F3008870474FF099
:1022600000007047000000004C5555555555A53FDE
:102270007751C1166CC156BF9015CB19A001FA3E1B
:10228000AD529C804F7E92BEC4B1B4BD9EEE213E45
:10229000D43888BEE9FAA8BD00004054FB21F93FBC
:1022A0003163621A61B4D03D0000601A61B4D03D60
:1022B0007370032E8A19A33B0000002E8A19A33BDA
:1022C000C14920259A837B390000000000000000EE
:1022D0006E83F9A22915444ED15727FCC0DD34F591
:1022E000999562DB4190433CAB6351FE61C5BBDE17
:1022F0003A6E24B7E0D24D42EA2E49061C92D1092B
:102300001CEB1DFE3EA729B1F53582E88444BB2EA7
:1023100026709CE9417E5FB439D69139F4395383F4
:102320008B5F849C3B28F9BDFF97F81F0F9805DE53
:102330008B112FEF1F6D0A5ACF7E366DB709CB2751
:10234000663F464F2DEA5F9EC7BA27757BF1E5EBE6
:10235000F739073DEA92528AB15FFB6B085D8D1F2A
:10236000A6F810111111813FD561C119A0012ABF32
:102370007DFEB157E31DC73EEB9C2B8AE6E55ABEB6
:102380007CD5CF5A3AD9E53DA823000800000020AB
:1023900010000000FC000008B82300081000002016
:1023A000500E0000180100080000000000000000AE
:0823B0000000000000127A0099
:040000050800015D91
:00000001FF
