:020000040800F2
:10000000600E00205D01000865010008670100081E
:10001000690100086B0100086D0100080000000084
:100020000000000000000000000000006F01000858
:10003000710100080000000073010008750100084C
:100040007701000877010008770100080000000030
:1000500000000000B90500087701000877010008DA
:100060007701000800000000770100087701000810
:100070007701000800000000770100087701000800
:1000800077010008770100080000000077010008F0
:1000900077010008000000000000000000000000E0
:1000A00000000000000000000000000077010008D0
:1000B00077010008B50700087701000877010008FC
:1000C00000F002F800F03AF80AA090E8000C824430
:1000D0008344AAF10107DA4501D100F02FF8AFF20D
:1000E000090EBAE80F0013F0010F18BFFB1A43F016
:1000F00001031847AC4F0000CC4F0000103A24BF5A
:1001000078C878C1FAD8520724BF30C830C144BF7C
:1001100004680C60704700000023002400250026BE
:10012000103A28BF78C1FBD8520728BF30C148BF5A
:100130000B6070471FB51FBD10B510BD00F09EF8D5
:100140001146FFF7F7FF02F05DFD00F0BCF803B4C5
:10015000FFF7F2FF03BC00F0BFF80000094880473A
:1001600009480047FEE7FEE7FEE7FEE7FEE7FEE799
:10017000FEE7FEE7FEE7FEE704480549054A064BB1
:100180007047000045100008C1000008600800200A
:10019000600E0020600A0020600A002010B5203A9E
:1001A000C0F00B80B1E81850203AA0E81850B1E830
:1001B0001850A0E81850BFF4F5AF5FEA027C24BFE6
:1001C000B1E81850A0E8185044BF18C918C0BDE8DD
:1001D00010405FEA827C24BF51F8043B40F8043BA6
:1001E00008BF7047D20728BF31F8023B48BF11F85B
:1001F000012B28BF20F8023B48BF00F8012B7047B5
:100200004FF0000200B5134694469646203922BFAF
:10021000A0E80C50A0E80C50B1F12001BFF4F7AFFA
:10022000090728BFA0E80C5048BF0CC05DF804EBDC
:10023000890028BF40F8042B08BF704748BF20F84A
:10024000022B11F0804F18BF00F8012B7047704748
:100250007047704710B500F009F8006810BD10B580
:10026000044600F003F8046010BD00000048704729
:100270000008002000487047000800207546FFF77E
:10028000F9FFAE4605006946534620F00700854653
:1002900018B020B5FFF770FFBDE820404FF0000612
:1002A0004FF000074FF000084FF0000B21F007015E
:1002B000AC46ACE8C009ACE8C009ACE8C009ACE8A1
:1002C000C0098D46704710B50446AFF30080204644
:1002D000BDE81040FFF73BBF01491820ABBEFEE769
:1002E00026000200704710B5012000F0CBFD00F0A1
:1002F000E7FD012817D10921022000F019FC012097
:1003000000F010FC00F034FC01280AD1002000F0BD
:100310004FFC012000F046FC4FF4807000F054FCCC
:1003200003E000BFFEE700BFFEE710BD0146054A3F
:10033000106811B140F0080001E020F00800014A07
:1003400010607047000009400146034A106820F021
:100350000200084410607047000009400EB50121FA
:10036000480600F0C7FD00208DF80A0001208DF836
:100370000200ADF8000000208DF804008DF80300A5
:100380006946024800F06EFA0EBD000000800C4085
:1003900010B50121880400F0ADFD00F007F8002041
:1003A000FFF7D2FF0120FFF7C1FF10BD0020024977
:1003B000486088600860704700000940012904D146
:1003C00001228240034B9A6203E001228240014BEA
:1003D000DA627047008002408268B2F1406F02D159
:1003E00002680A6007E08269521E83689B0E9A4089
:1003F00003681A440A604269042A03D142680C3235
:100400004A600EE0C268B2F1404F02D142684A60D1
:1004100007E08269521EC3689B0F9A4043681A44E2
:100420004A60D0E903231A4383681A43436A1A4394
:10043000036A1A43C3691A4383695B1E42EA0312C3
:1004400043691A438A60704710B50121274800F0BC
:1004500051FD4FF0FF30264908604FF0E021C1F810
:10046000800100F057F8234800F04AF92248234958
:100470000860234848602348C06888614FF0806066
:1004800088604FF04040C8604FF0885008614FF4DA
:10049000A030C8614FF480200862C000486201208B
:1004A0004861084613490860002008734873887340
:1004B0000A2000F0A1F84FF4806013494862C86137
:1004C00001210A20FFF77AFF05200121002807DA21
:1004D0004A07140E0D4A00F00F031B1FD45403E00B
:1004E0004A07130E0A4A135400BF10BD2001100022
:1004F00080E200E06800002078000020400000203A
:1005000008000940780200200080024018ED00E059
:1005100000E400E000200649486088604861401E11
:10052000C8614862C8624863C8630120C8647047F4
:1005300000800240024609293AD2DFE801F039057D
:100540000A0F161D242B32001A48006800F0010023
:1005500070471848C06C00F00100F9E71548806A40
:10056000012393401840C0B2F2E71248006A012309
:1005700093401840C0B2EBE70E4803690120904059
:100580000340D8B2E4E70B48836901209040034060
:10059000D8B2DDE70748006B012393401840C0B292
:1005A000D6E70448836B012090400340D8B2CFE7E0
:1005B0000020CDE70080024010B5012008490870F6
:1005C0000848C0680849886108490A2000F014F802
:1005D000074800680749088000200549086010BDE9
:1005E0000200002078020020400000206800002067
:1005F000000008400000002070B504460D46214868
:1006000021498860286828B11E4A02EB0411286835
:10061000FFF7E2FE686840B11B48C06800EB0416B3
:1006200031466868FFF7D8FE00BFA86840F00100B7
:1006300015494860687B012802D1A040886103E029
:100640000120A0401049C8610120A0400E49486225
:100650000120A0408862A87B18B90120A04048630F
:1006600003E00120A04008490863287B012803D14A
:10067000A0400549886303E00120A0400249C86307
:1006800070BD0000000400200080024070B58EB0F4
:1006900005460E460024FFF73DFF684600F030F89F
:1006A0001648049005958002069000200790089057
:1006B000012009900A9600200B904FF480200C90A6
:1006C000C0000D9004A8009001208DF80C000020BF
:1006D0008DF80D008DF80E0069460120FFF78CFFA4
:1006E0000BE0002407E0285D0D2802D120460EB063
:1006F00070BD601CC4B2B442F5D3F2E70000034001
:100700000021016041608160017341738173704712
:1007100030B58FB004460D46FFF7FCFE01A8FFF789
:10072000EFFF059413480690002007904FF04040DB
:1007300008900020099001200A900B9500200C9051
:100740004FF480200D90C0000E9005A8019000206D
:100750008DF810008DF811008DF8120001A9FFF737
:100760004BFF00BF03210020FFF7E4FE0028F9D172
:100770000FB030BD000003401FB501210A4800F052
:10078000B9FB4FF0FF30094908604FF0E021C1F894
:100790008001FFF7BFFE6846FFF7B2FF0320044960
:1007A0004862C8611FBD00002001100080E200E027
:1007B0000080024010B50448007808B103F09AF8B0
:1007C00001200149087010BD080000200EB501216C
:1007D000880500F08FFB00208DF8080001208DF8BF
:1007E0000A008DF802000F20ADF8000000208DF8FF
:1007F000040001208DF8030003208DF809006946EC
:10080000014800F02FF80EBD00000B4010B50E4857
:100810004068012804D0022805D0032809D105E04A
:1008200000F078FB05E000F02BF902E000F0D0FDCD
:1008300000BF00BFFFF708FEFFF790FDFFF7A8FD20
:1008400000F020FC10BD00007802002000F01F0224
:10085000012191404209920002F1E022C2F8001108
:10086000704700002DE9FE4F4768D0F808C0D0F867
:100870000C80D0F81090D0F814A0CDF808A0D0F8D3
:1008800018A0CDF804A0D0F81CA0CDF800A000223C
:10089000012303254FF001160C885FE004F0010AE4
:1008A000BAF1000F55D027EA030A91F802B00BFA0B
:1008B00002FB4AEA0B0791F808A04FEA420B0AFA3A
:1008C0000BFA2CEA050B4AEA0B0C28EA030A91F80A
:1008D0000AB00BFA02FB4AEA0B0829EA060A91F869
:1008E00003B002F1100E0BFA0EFB4AEA0B0A91F864
:1008F00004B00BFA02FB4AEA0B09DDF808A02AEA69
:10090000060A91F805B00BFA0EFB4AEA0B0A91F8B9
:1009100006B00BFA02FB4AEA0B0ACDF808A091F8E0
:1009200009A04FEA420B0AFA0BFADDF804B02BEAF1
:10093000050B4AEA0B0ACDF804A0DDF800A02AEA6C
:10094000030A91F807B00BFA02FB4AEA0B0ACDF84A
:1009500000A05B00AD007600521C6408002C9DD105
:10096000DFF8C4A0504502D14FF01F0A01E04FF05C
:10097000000A27EA0A0AC0F804A0DFF8ACA0504534
:1009800002D14FF01F0A01E04FF0000A2CEA0A0AD8
:10099000C0F808A0DFF890A0504502D14FF01F0A20
:1009A00001E04FF0000A28EA0A0AC0F80CA0DFF8BC
:1009B00078A0504502D14FF01F0A01E04FF0000A25
:1009C00029EA0A0AC0F810A0DFF85CA0504502D15D
:1009D0004FF01F0B01E04FF0000BDDF808A02AEAF2
:1009E0000B0AC0F814A0DFF840A0504502D14FF028
:1009F0001F0B01E04FF0000BDDF804A02AEA0B0A00
:100A0000C0F818A0DFF820A0504502D14FF01F0B0E
:100A100001E04FF0000BDDF800A02AEA0B0AC0F855
:100A20001CA0BDE8FE8F000000000C400268054BD2
:100A3000984201D11F2300E000230B439A43026038
:100A40007047000000000C400268054B984201D13D
:100A50001F2300E000239A430A430260704700000E
:100A600000000C404FF6FF71018000218170C170C1
:100A7000017141718171C17101724172817270475E
:100A80002DE9F0411649C86804F044F806461449B7
:100A9000086904F03FF80746314603F059FF054660
:100AA00000240DE0204604F035F80746294604F0FE
:100AB00045F8064604F00EF80A4921F81400641CB3
:100AC0000748C068401EA042ECD806480188044888
:100AD000C068401E034A22F81010BDE8F0810000F3
:100AE00078020020780000200EB502208DF8080062
:100AF00001208DF80A0000208DF802004FF480607C
:100B0000ADF8000001208DF8040000208DF80300EE
:100B100003208DF8090069460148FFF7A3FE0EBDCA
:100B200000000B4001490860704700008800404207
:100B300010B502460C4BD86820F003001043D86073
:100B4000586820F4706040EA01205860074B1B6829
:100B500043B10123054C241D23600023034C883C32
:100B6000C4F88C3010BD00000000024088004042F4
:100B700038B50020009000BF212000F069F905463B
:100B80000098401C00900098B0F5C06F01D2002D75
:100B9000F2D0212000F05CF908B1012400E000242B
:100BA000204638BD01490860704700008801404276
:100BB0000146044AD06820F0F00040EA0110D060FD
:100BC00070470000000002400146034AD06820F44C
:100BD00040700843D0607047000002402DE9FC4F90
:100BE0000146DFF864B2DBF80CB00BF0020BBBF18E
:100BF000000F01D0954B00E0944BDFF84CB2DBF8CE
:100C00000CB00BF0010BBBF1000F00D05B081C46D1
:100C1000DFF834B2DBF80CB00BF0040BBBF1000FC3
:100C20000DD0DFF824B2DBF804B0CBF3032B0BF1CB
:100C3000010BCDF800B0DDF800B004FB0BF4DFF8D9
:100C400008B2DBF80CB0CBF3012BBBF1000F06D0E0
:100C5000BBF1010F08D0BBF1020F28D122E0DFF871
:100C6000ECB1C1F800B027E0DFF8DCB1DBF80CB084
:100C70004FF0080E0EEA1B1BBBF1000F01D1A0467E
:100C80000DE0DFF8C4B1DBF80CB0CBF3021B0BF1C5
:100C9000010B4FF0010E0EFA0BFEB4FBFEF8C1F88B
:100CA000008009E04FF4004BC1F800B004E049F6C1
:100CB000404BC1F800B000BF00BFDFF88CB1DBF8DB
:100CC00010B00BF0020BBBF1000F01D05F4D00E044
:100CD0005E4DDFF874B1DBF810B00BF0010BBBF127
:100CE000000F00D06D082F46DFF85CB1DBF810B0C4
:100CF0000BF0040BBBF1000F0DD0DFF84CB1DBF8AB
:100D000004B0CBF3031B0BF1010BCDF800B0DDF801
:100D100000B007FB0BF7B946DFF82CB1DBF810B0D9
:100D20000BF0100BBBF1000F01D04FEA5909C1F8CD
:100D30000490DFF814B1DBF818B04FEA1B1000F094
:100D4000080BBBF1000F02D1DFF800C10BE000F08F
:100D5000070B0BF1010B4FF0010E0EFA0BF0DFF851
:100D6000ECB0BBFBF0FCC1F80CC0DFF8DCB0DBF88A
:100D7000180000F0080BBBF1000F04D1DFF8CCB075
:100D8000CDF804B00DE000F0070B0BF1010B4FF0B4
:100D9000010E0EFA0BF0DFF8B4B0BBFBF0FBCDF8A0
:100DA00004B0DDF804B0C1F810B0DFF89CB0DBF897
:100DB00014B00BF0030BBBF1000F06D0BBF1010F19
:100DC00005D0BBF1020F06D103E01E4605E02E461A
:100DD00003E0264601E03E4600BF00BFDFF868B0F2
:100DE000DBF814B0CBF3011BBBF1000F06D0BBF155
:100DF000010F06D0BBF1020F08D105E04FF400420D
:100E000006E049F6404203E0324601E0624600BF98
:100E100000BFDFF834B0DBF814B04FEA1B2000F05D
:100E2000080BBBF1000F01D1924609E000F0070B5F
:100E30000BF1010B4FF0010E0EFA0BF0B2FBF0FAC2
:100E4000C1F808A0BDE8FC8F0000024000127A0043
:100E500010B5014601F0E003202B02D1074B1A68C0
:100E600001E0074BDA6B01F01F040123A34013409C
:100E70000BB1012000E0002010BD00000000024086
:100E800000800D400D49896821F003010B4A9160F3
:100E9000012802D002280ED106E00849896841F0F5
:100EA0000101064A916007E00449896841F00301A5
:100EB000024A916000E000BF00BF7047000002409E
:100EC00038B50020009000BF2220FFF7C1FF054683
:100ED0000098401C00900098B0F5C06F01D2002D22
:100EE000F2D02220FFF7B4FF08B1012400E0002473
:100EF000204638BD29B1064AD2690243044BDA6163
:100F000004E0034AD2698243014BDA617047000072
:100F1000000002402DE9F04F89B02249C86803F073
:100F20008BF9064632460B461F48204902F0B8FFAF
:100F3000044602F0C7FE08904FF0000A2BE050462E
:100F400003F0E8FD0190089903F0F8FD834603F0F3
:100F5000D3FC804602F0D8FDCDE9020111490869B1
:100F600003F06AF90646DDE9022303F0B5F9CDE99D
:100F700006010C49086A03F05FF9CDE90401DDE9D7
:100F8000062302F0D1FE044603F012F9084921F8C5
:100F90001A000AF1010A0348C0685045CFD809B0C9
:100FA000BDE8F08F7802002044174154FB2119401E
:100FB0007800002030B5204CE46804F00204022CD4
:100FC00001D11E4800E01D481B4CE46804F00104F8
:100FD00004B140080146184CE46804F00404042CF1
:100FE00005D1154C6468C4F30324631C5943124CA7
:100FF000E468C4F3012424B1012C06D0022C13D1DF
:101000000DE00E4C0E4D2C6013E00B4CE468C4F365
:101010000314641CB1FBF4F2094C226009E04FF4A4
:101020000044074D2C6004E049F64044044D2C6018
:1010300000BF00BF30BD00000000024000127A0077
:101040003C00002000B50D480D49C8610846C06845
:101050000020C86008464068002048600846806854
:101060000020886008460069002008610846406941
:1010700000204861FFF79EFF00BD0000100000083F
:101080000000024010B586B0234880682249C96834
:1010900048432249B1FBF0F080B2441E204800F0E2
:1010A00074F901218803FFF725FF00211C4800F097
:1010B00039F80020ADF80200A0B2ADF8040000201D
:1010C000ADF80600ADF80800ADF80A00ADF80C0068
:1010D000ADF80E00ADF81000ADF81200ADF8140038
:1010E000ADF8160069460E4800F01DF901220221F4
:1010F0000B4800F041F90121094800F00AF90520E8
:10110000012181404209920002F1E022C2F800115F
:1011100000BF06B010BD00007802002000B4C40477
:10112000000007400246104B586A104B9A4205D106
:1011300020F0FF00084340F0807012E00C4B9A4210
:1011400006D120F47F4040EA012040F0007008E022
:10115000084B9A4205D120F47F0040EA014040F05C
:101160008060014B58627047000002400000074059
:10117000008007400000084000B595B001214FF401
:101180000100FFF7B7FE00213148FFF7CBFF12A89F
:10119000FFF768FC02208DF8500000208DF84A000F
:1011A00001208DF852000420ADF8480012A929480A
:1011B000FFF758FB264800F0E8F80CA800F0CEF83E
:1011C0000020ADF832004FF6FF70ADF8340000207B
:1011D000ADF838008020ADF83600C000ADF83A0018
:1011E0000020ADF83E00ADF83C00ADF84000ADF891
:1011F0004200ADF84400ADF846000CA9144800F0D8
:1012000092F806A800F077F80020ADF818004FF427
:101210000040ADF81A000020ADF8260006A90C48E1
:1012200000F01AF801A800F05BF80020ADF8040007
:10123000ADF80600ADF80800ADF80A0001A90448B1
:1012400000F02DF80121024800F063F815B000BD50
:101250000000084000800B4070B54D88CE883544B2
:101260000E8935444E8935448E8905EB8615CE8925
:1012700035440E8AAC198D880DB104F500540A88E6
:1012800000F1200545F822404D8ACE8AAB198D8A9F
:1012900005B11B1D00F1600545F8223070BD70B529
:1012A0004D882D018E8805EB8605CE8835440E8944
:1012B00005EB06354E8905EB86258E8905EB062361
:1012C0000A8800F1300545F822300D8ACE8905EBF9
:1012D00006254E8AAC1900F1400545F8224070BD44
:1012E000002141808180C180018141818181C18152
:1012F0000182418270470021018041808180C1804C
:10130000018141818181C181018241828182C182C9
:1013100070470A46C16812B141F0010101E021F0B5
:101320000101C160704730B50C8804604C8844608E
:101330008C888460CC880D892C444D892C448D89FF
:101340002C44CD896319C3604C8A0D8A04EB0514C3
:101350008D8A2C44CD8A6219026530BD002101803E
:1013600041808180C180018141818181C18101826F
:1013700041828182C182704710B51346C26D0BB1A4
:101380000A4300E08A43C26510BD0021C1600160CC
:1013900041608160016241628162C16201634163B7
:1013A0008163C163016641668166C1660161416115
:1013B0008161C161016741678167C16701644164FF
:1013C0008164C164016541658165C1657047000044
:1013D0002DE9F0411E49C86803F09CFB06461C49F4
:1013E0000969480003F096FB0746314603F0B0FA5E
:1013F000054600240DE0204603F08CFB07462946F5
:1014000003F09CFB064603F065FB124921F814002B
:10141000641C0F48C068B4EB500FECD30C48C06894
:1014200044080FE00A49C968081B03F073FB07462C
:10143000294603F083FB064603F04CFB054921F8DF
:101440001400641C0248C068A042EBD8BDE8F081DB
:10145000780200207800002000B587B001218805BF
:10146000FFF748FD02208DF8180001208DF81A00C2
:1014700002208DF819002020ADF8100001208DF811
:10148000120004A92248FFF7EDF94020ADF8100042
:1014900000208DF8120004A91D48FFF7E3F901218F
:1014A0004020FFF727FD1B4800F070F80021194885
:1014B00000F032F8684600F0D5F84FF4165000906E
:1014C0000020ADF80A004FF44070ADF80C00002089
:1014D000ADF80800ADF806006020ADF804006946DC
:1014E0000C4800F067F8022211460A4800F04AF85A
:1014F00001220221074800F039F80122114605486F
:1015000000F034F80121034800F024F807B000BDD2
:1015100000000B400000034002460B4B986A0B4B47
:101520009A4205D140F0807020F0FF00084308E0A7
:10153000074B9A4205D140F0007020F47F4040EA0A
:101540000120014B986270470000024000000340F8
:101550000080034021B1026B42F00102026304E00B
:10156000026B4FF6FE731A400263704710B51AB152
:10157000836C0B43836404E0836CCC43A4B22340AC
:10158000836410BD42EAC1034363704700210163D5
:10159000C1624160902181610021016241628162EA
:1015A000022141630021816381644FF44071016332
:1015B000704700002DE9F04F87B004460D4601A8A2
:1015C000FFF70CFB019F2448866A2448844206D119
:1015D00006F0070101208840B7FBF0F708E020483B
:1015E000844205D1C6F3022101208840B7FBF0F701
:1015F00028688008B7FBF0F94FEA991809F03F0A0C
:10160000B8000AEB8811B0FBF1FB2868ABEB0000D7
:10161000C0012968B0FBF1F006900698022803D9B2
:10162000002007B0BDE8F08FC4F82480C4F828A0DB
:10163000E66AA888E9880843298908436989084334
:101640000643E662266B4FF680708643A889064300
:1016500026630120E5E7000000000240000003408F
:10166000008003404FF41651016000218180C18049
:10167000018141814FF440718181704710B504466A
:1016800004212046FFF744F8022102A0FFF740F8AA
:1016900010BD00000D0A000010B5044604212046CC
:1016A000FFF736F810BD490050EAC12018BF0420EA
:1016B0004A0D18BF40F0010040F2FF72B2EB515FDB
:1016C00008BF40F00200012808BF05207047000055
:1016D0002DE9F74F144694B00021C4E90211159981
:1016E000079121F00045C9498D4206DC1599C4E9EE
:1016F000000117B00020BDE8F08FC549DFF814A342
:10170000A9423CDD0799C44E0029C44FC44A15992B
:10171000534619DD03F006F8554506D0C14AC24BC1
:1017200003F000F8C4E900010AE04FF0D352BE4BC9
:1017300002F0F8FF32463B4602F0F4FFC4E9000134
:1017400017B00120BDE8F08F02F0EEFA554506D043
:10175000B44AB54B02F0E8FAC4E900010AE04FF0E0
:10176000D352B14B02F0E0FA32463B4602F0DCFACB
:10177000C4E9000117B04FF0FF30BDE8F08FAB496E
:10178000A942159978DB21F0004183468846A84A92
:10179000A84B02F0A1FD0022A74B02F0C5FA02F00F
:1017A000D7FC099002F031FD06460F469C4A53468D
:1017B00002F092FD43465A4602F0C2FE80468A4637
:1017C000984A994B3046394602F086FD2A0D01258C
:1017D0000B924246534602F0B3FE032DC4E90001CA
:1017E00039D00B98C1F30A51401A05EB4511113954
:1017F000814230DA9148C346784400EB0510CDF8B9
:101800000CA00C90D0E900233046394602F064FD6C
:1018100002460B46049106905846039902F082FF57
:1018200080468A4602460B465846039902F07AFFE4
:10183000049B069A02F076FF83460C980391394682
:10184000D0E90223304602F047FD5A46039B02F0DE
:1018500069FF6D1CBDE707980028A2BF099817B063
:10186000BDE8F08F616881F000416160099817B0B0
:101870004042BDE8F08FFFE784461598C1F313019D
:10188000C0F30A50A0F2F5304FEA601800F01F06CE
:10189000C6F12000139000200690079041F4801EAE
:1018A00005206D4676B1664A08EB00017A4452F88D
:1018B000213002EB8101B3404A68139922FA01F109
:1018C000194305E05F4908EB0002794451F8221002
:1018D000A1FB0E27A1FB0C131A449A4234BF01232B
:1018E000002303EB070A05EB8003D3E901B70F449C
:1018F0008F4234BF0121002193448B4411B19345A1
:1019000002D903E0934501D2012100E00021C3E99F
:1019100001B7514445F82010011EA0F10100C1DCBF
:101920000298059F00F10050800F12900298DDE9A7
:101930000356800002F069FC834628460D9102F0B0
:101940007BFC6FF01D0203F0F7F9CDE90E01304684
:1019500002F072FC6FF03D0203F0EEF980468A4619
:10196000384602F069FC6FF05D0203F0E5F90746C6
:1019700042465346119102F0D7F9DDE90E2302F0F9
:10198000D3F95A460D9B02F0CFF900250E465A4670
:1019900028460D9B02F0C6FEDDE90E2302F0C2FED2
:1019A0004246534602F0BEFE3A46119B02F0C8FD85
:1019B000DFF898A0244A534602F08EFC074688467A
:1019C000234A244B3146284602F086FC3A464346D9
:1019D00002F0AAF9074688464FF0A842534631461E
:1019E000284602F079FC3A46434602F09DF9159AE2
:1019F00012F0004F04D0129A81F00041524212922C
:101A0000C4E90001129817B0BDE8F08FFB21E93F4F
:101A10007CD90240FB21F93F7370032E8A19A33B46
:101A2000000040543163621A61B4D03DFB2139415A
:101A300083C8C96D305FE43F0000E03F8C36000092
:101A400008360000EA350000182D4454FB21F93D0A
:101A50003326A611460B113C2DE9FF4D21F000481D
:101A600007460C46B8F1795F08DA02F071FB0028EE
:101A700001BF0020324904B0BDE8F08D3A4623464C
:101A80001046194602F028FC054602462D480E462F
:101A90000B460621784400F05DF82A46334602F0F2
:101AA0001BFCDDE9022382468B463846214602F0C4
:101AB00013FC04460F4652465B462846314602F068
:101AC0000BFC22463B4602F02DFE07468A464FF0AD
:101AD000FF322846314603F02FF91B4A90450ADAB7
:101AE0003A46534602F01EFE04B00022BDE8F04D17
:101AF000134B02F025BD154A4245A8BFA8F50015B5
:101B00004FF00004B8BF124D22462B4602F00AFEE9
:101B10000646884622462B460020094902F002FE6E
:101B200004460D463A4653463046414602F0FAFD19
:101B300004B022462B46BDE8F04D02F001BD000086
:101B40000000F03FB83300003333D33F0000E93FDB
:101B50000000D23F2DE9F0414F1E00EBC7010446C3
:101B6000D1E9000115461E4637F006020DD02A467F
:101B7000334602F0B1FB7F1E04EBC703D3E9002319
:101B800002F0D2F837F00602F1D1022F25D0042F4F
:101B900013D0062F18BFBDE8F0812A46334602F065
:101BA0009BFBD4E90A2302F0BFF82A46334602F031
:101BB00093FBD4E9082302F0B7F82A46334602F033
:101BC0008BFBD4E9062302F0AFF82A46334602F035
:101BD00083FBD4E9042302F0A7F82A46334602F037
:101BE0007BFBD4E9022302F09FF82A46334602F039
:101BF00073FBD4E90023BDE8F04102F095B8000082
:101C00002DE9FF4D054621F0004084B00C46B0F1AF
:101C1000795F0BDA2846FFF746FD042808BF00F07D
:101C20007FF8284608B02146BDE8F08D2A460B46CD
:101C3000104602F051FB06460F462A46234602F0A4
:101C40004BFB804626488A4632463B46052178446F
:101C5000FFF780FF83461098029160B3214A224B20
:101C60004046514602F038FBCDE900015A46404655
:101C70005146029B02F030FB82468846DDE90601B0
:101C80004FF0FF3203F058F85246434602F04AFD47
:101C900032463B4602F020FBDDE9062302F042FD1E
:101CA000DDE9002302F03EFD08B02A462346BDE8E8
:101CB000F04D02F045BC0B465A463046394602F01C
:101CC0000BFB084A084B02F02FF84246534602F03D
:101CD00003FB08B02A462346BDE8F04D02F024B8C5
:101CE000FE320000495555555555C5BF00221346D3
:101CF0001046014902F0D4B80000F03F012203F081
:101D00001BB802F011B8002213461046114602F02B
:101D1000C7B840F2013200204FF0E04103F00CB8A8
:101D2000024A0020110703F007B8000001FDFFFF81
:101D300030B593B000201190129014222FA10CA85E
:101D4000FEF72CFA302232A16846FEF727FA53E05C
:101D500013210CA8FEF7DCFC05213948FEF7D8FC5E
:101D600001F0ACFD044637480068002802DA00F0B4
:101D7000F9FA41E03448406801281ED1B4F5006FFB
:101D800005D3801F2F49086000F0ECFA34E02E489C
:101D900004612E216846FEF7BBFC2B48016911A89F
:101DA00000F0F6F90546294611A8FEF7B1FC03211B
:101DB0002648FEF7ADFC13B030BDB4F5805F06D306
:101DC0006FF004001F49086000F0CCFA14E01E48D0
:101DD00004612E216846FEF79BFC1B48016911A88F
:101DE00000F0D6F90546294611A8FEF791FC03211B
:101DF0001648FEF78DFCDEE7AAE70000456E746525
:101E00007220616D706C69747564653A0D0A00002A
:101E10004D6178696D756D20616D706C6974756464
:101E200065206F6620746865206D6F64756C6174E1
:101E3000696E6720766F6C746167653A20000000F8
:101E40001B0000203800002078020020180000202D
:101E500030B593B00020119012901C221DA10AA849
:101E6000FEF79CF9242222A101A8FEF797F930E0A1
:101E700019210AA8FEF74CFC05212648FEF748FC6C
:101E800001F01CFD044624480068002802DA00F036
:101E900069FA1EE0FF2C06D96FF003001E490860A6
:101EA00000F060FA15E01D48C460212101A8FEF78A
:101EB0002FFC1A48C16811A800F06AF905462946A6
:101EC00011A8FEF725FC03211548FEF721FC13B0ED
:101ED00030BDCDE7456E746572207468652062750B
:101EE000666665722073697A653A0D0A0000000023
:101EF00053697A65206F662074686520627566662E
:101F00006572206F6620636F756E74696E673A2024
:101F1000000000001B000020380000207802002094
:101F20001800002010B52C48007801280AD10020A4
:101F30002949087001212948FEF778FD0221274828
:101F4000FEF774FD2648007D26490988884214DA88
:101F50002348407D23490988884205DD22480068DE
:101F6000401C2149086010E01F48006868B11E4805
:101F70000068401E1C49086007E01B48006820B14B
:101F800019480068401E184908601548007D154929
:101F90000988884203DA01211048FEF755FD1048F0
:101FA000407D10490988884203DD02210B48FEF775
:101FB0004BFD0B4880690C49096888420AD1082109
:101FC0000648FEF741FD04210448FEF72FFD0020DE
:101FD0000549086010BD00000200002000000B4011
:101FE00078020020000000200400002030B591B0ED
:101FF00000200F90109020221DA107A8FEF7CEF818
:102000001C2223A16846FEF7C9F830E0202107A86A
:10201000FEF77EFB05212548FEF77AFB01F04EFC1A
:10202000044623480068002802DA00F09BF91EE00D
:10203000642C06D96FF006001D49086000F092F983
:1020400015E01C48C46119216846FEF761FB194878
:10205000C1690FA800F09CF8054629460FA8FEF7B5
:1020600057FB03211448FEF753FB11B030BDCDE7F9
:10207000456E7465722061646A7573746D656E7403
:1020800020636F656666696369656E743A0D0A0060
:1020900041646A7573746D656E7420636F656666FE
:1020A000696369656E743A20000000001B0000201F
:1020B00038000020780200201800002030B591B0D0
:1020C00000200F90109014221EA10AA8FEF766F8B7
:1020D000282221A16846FEF761F831E012210AA802
:1020E000FEF716FB05212648FEF712FB01F0E6FB82
:1020F000044624480068002802DA00F033F91FE0A3
:10210000B4F5805F06D36FF007001E49086000F049
:1021100029F915E01C48046225216846FEF7F8FA03
:102120001948016A0FA800F033F8054629460FA8A0
:10213000FEF7EEFA03211548FEF7EAFA11B030BDBA
:10214000CCE70000456E74657220636F6E73746136
:102150006E743A0D0A000000436F6E7374616E7402
:10216000206F6620746865206D6F64756C6174699A
:102170006E6720766F6C746167653A20000000001E
:102180001B000020380000207802002018000020EA
:102190002DE9F04786B082468946002500241DE0DF
:1021A000204602F049F807463A460B4600202A49E5
:1021B00000F058FDCDE90201484602F03DF8CDE9B6
:1021C0000001DDE9022301F06BFECDE9040101F01D
:1021D000BFFF064606B92546601CC4B2002DDFD0FD
:1021E000002433E0691E081B02F00FF802460B467C
:1021F000CDE900010020184900F034FD074688466B
:10220000484602F019F83A464346CDE9020101F08A
:1022100047FECDE9040101F09BFF0646F0B200F055
:102220004DF80AF80400691E081B01F0EEFF07468E
:102230003A460B460020084900F014FDCDE90401A0
:1022400001F0B6FF06FB1099601CC4B2AC42C9DBBA
:10225000284606B0BDE8F087000024402DE9F05F75
:1022600081468A460024A34600BF07E019F804000F
:1022700000F046FC09F80400601CC4B25445F5DBCC
:10228000002414E0AAF10101081B01F0BEFF07467B
:102290003A460B460020084900F0E4FC054601F0F0
:1022A00087FF19F8041001FB00BB601CC4B2544541
:1022B000E8DB5846BDE8F09F0000244001460A29AB
:1022C0001AD2DFE801F00507090B0D0F11131517DE
:1022D000302070473120FCE73220FAE73320F8E75E
:1022E0003420F6E73520F4E73620F2E73720F0E730
:1022F0003820EEE73920ECE70846EAE710B5002180
:10230000134A1278012A22D10022114B1A70114A65
:102310001288114B114C247823F814200F4A12789C
:10232000521C0E4B1A701A461278032A01D1002251
:102330001A70002004E0084A32F810201144401CB2
:102340000328F8D30322B1FBF2F2054B1A6010BD4B
:1023500002000020000000200A00002010000020E1
:102360001400002000B5ADF5097D302235A17DA80F
:10237000FDF714FF24223FA174A8FDF70FFF4822A8
:10238000454962A8FDF70AFF402244A152A8FDF783
:1023900005FF402251A142A8FDF700FF54225F49EA
:1023A0002DA8FDF7FBFE2C225DA122A8FDF7F6FE6D
:1023B0004822664910A8FDF7F1FE402264A1684654
:1023C000FDF7ECFE724800680930092833D2DFE8D7
:1023D00000F02D28231E19140F0A0500232174A8CC
:1023E000FEF796F927E0452162A8FEF791F922E071
:1023F0003F2152A8FEF78CF91DE0402142A8FEF7CC
:1024000087F918E051212DA8FEF782F913E02A215F
:1024100022A8FEF77DF90EE0482110A8FEF778F912
:1024200009E03E216846FEF773F904E030217DA8FB
:10243000FEF76EF900BF00BF0020554908600DF59A
:10244000097D00BD6572726F722073656C6563747F
:102450004D6F64654572726F723A20496E636F7298
:10246000726563742073656C656374206D6F646559
:102470000D0A0A006572726F7220696E636F72498D
:102480006E703A20496E636F727265637420696E74
:102490007075740D0A0A0000C04F00086572726FF3
:1024A0007220667265714D6F644572726F723A2068
:1024B000496E636F727265637420667265717565CB
:1024C0006E63792876616C756573206C6573732013
:1024D0003230306B487A290D0A0A00006572726F3B
:1024E00072206275664D6F64654572726F723A2034
:1024F000496E636F7272656374206C656E67746891
:10250000206275666665722876616C756573206CED
:1025100065737320323536290D0A0A000850000809
:102520006572726F72206672657142774572726F62
:10253000723A20496E636F72726563742062616ED5
:102540006477696474680D0A0A000000784F000817
:102550006572726F7220636F6E73744D6F64654540
:1025600072726F723A20496E636F72726563742083
:10257000636F6E7374616E742876616C7565732019
:102580006C6573732034303936290D0A0A00000057
:102590003800002070B598B00020169017901422D3
:1025A00037A111A8FDF7FAFD14223AA10CA8FDF7F6
:1025B000F5FD24223CA103A8FDF7F0FD43A000682F
:1025C000029043A00068019059E0132111A8FEF782
:1025D0009FF805213F48FEF79BF801F06FF905468B
:1025E00013210CA8FEF794F805213A48FEF790F85D
:1025F00001F064F9044638480068002802DAFFF761
:10260000B1FE3CE0A54206D36FF0050032490860F8
:10261000FFF7A8FE33E0FF2D01D8FF2C06D96FF09D
:1026200005002D490860FFF79DFE28E02B490D7538
:102630004C75232103A8FEF76BF82848017D16A8E6
:10264000FFF7A6FD0646314616A8FEF761F80221FF
:1026500002A8FEF75DF82148417D16A8FFF798FD16
:102660000646314616A8FEF753F8022101A8FEF7E8
:102670004FF803211A48FEF74BF818B070BDA4E7D5
:10268000536574206C6F77657220626F756E643A63
:102690000D0A000053657420757070657220626FBA
:1026A000756E643A0D0A000042616E647769647465
:1026B00068206F66206672657175656E6379206F3C
:1026C000662062656174733A205B00002C00000094
:1026D0005D0000001B000020380000207802002070
:1026E0001800002030B593B00020119012901822ED
:1026F0001EA10BA8FDF752FD282222A101A8FDF77B
:102700004DFD31E018210BA8FEF702F805212748FE
:10271000FDF7FEFF01F0D2F80446254800680028C6
:1027200002DAFFF71FFE1FE02248844206D96FF04D
:1027300002001F490860FFF715FE15E01E4884607F
:10274000262101A8FDF7E4FF1B48816811A8FFF7C7
:102750001FFD0546294611A8FDF7DAFF032117489A
:10276000FDF7D6FF13B030BDCCE70000456E7465B1
:1027700072206672657175656E63792028487A29C2
:102780003A0D0A004672657175656E6379206F6651
:1027900020746865206D6F64756C6174696E672064
:1027A000766F6C746167653A200000001B000020A2
:1027B00038000020400D030078020020180000209F
:1027C00010B5E4B0002062906390302268A156A852
:1027D000FDF7E4FC302272A14AA8FDF7DFFC3022AD
:1027E0007BA13EA8FDF7DAFC302285A132A8FDF7D7
:1027F000D5FC30228EA126A8FDF7D0FC302298A16E
:102800001AA8FDF7CBFCA2A000681990A1A000684F
:1028100018903022A0A10CA8FDF7C0FC3022AAA17C
:102820006846FDF7BBFC2E2156A8FDF771FFB248A4
:10283000416862A8FFF7ACFC0446214662A8FDF798
:1028400067FF0321AD48FDF763FF2E214AA8FDF77E
:102850005FFFA948816862A8FFF79AFC04462146F9
:1028600062A8FDF755FF0321A448FDF751FF2E2173
:102870003EA8FDF74DFFA048C16862A8FFF788FC9D
:102880000446214662A8FDF743FF03219B48FDF75C
:102890003FFF2E2132A8FDF73BFF9748016962A850
:1028A000FFF776FC0446214662A8FDF731FF0321BD
:1028B0009248FDF72DFF2E2126A8FDF729FF8E480F
:1028C000016A62A8FFF764FC0446214662A8FDF78E
:1028D0001FFF03218948FDF71BFF2F211AA8FDF7D1
:1028E00017FF8548017D62A8FFF752FC0446214688
:1028F00062A8FDF70DFF022119A8FDF709FF7E4828
:10290000417D62A8FFF744FC0446214662A8FDF71A
:10291000FFFE022118A8FDF7FBFE03217748FDF713
:10292000F7FE2E210CA8FDF7F3FE7348816962A81B
:10293000FFF72EFC0446214662A8FDF7E9FE0321BD
:102940006E48FDF7E5FE2E216846FDF7E1FE6A4878
:10295000C16962A8FFF71CFC0446214662A8FDF786
:10296000D7FE03216548FDF7D3FE64B010BD00001B
:1029700054797065206F6620746865206D6F64758A
:102980006C6174696E6720766F6C746167653A205C
:102990002020202020202020202020202000000097
:1029A0004672657175656E6379206F66207468651F
:1029B000206D6F64756C6174696E6720766F6C74DE
:1029C0006167653A20202020202020202000000080
:1029D00053697A65206F6620746865206275666643
:1029E0006572206F6620636F756E74696E673A203A
:1029F0002020202020202020202020202000000037
:102A00004D6178696D756D20616D706C6974756468
:102A100065206F6620746865206D6F64756C6174E5
:102A2000696E6720766F6C746167653A20000000FC
:102A3000436F6E7374616E74206F662074686520D6
:102A40006D6F64756C6174696E6720766F6C74610C
:102A500067653A2020202020202020202000000030
:102A600042616E647769647468206F66206672657F
:102A70007175656E6379206F662062656174733A63
:102A8000202020202020202020202020205B00004B
:102A90002C0000005D0000004C696D6974206163CA
:102AA00063756D756C6174696F6E3A20202020200B
:102AB0002020202020202020202020202020202016
:102AC000202020202000000041646A7573746D6529
:102AD0006E7420636F656666696369656E743A201B
:102AE00020202020202020202020202020202020E6
:102AF0002020202020000000780200201800002064
:102B00000146A1F130000A281AD2DFE800F00507DB
:102B1000090B0D0F11131517002070470120FCE75A
:102B20000220FAE70320F8E70420F6E70520F4E79F
:102B30000620F2E70720F0E70820EEE70920ECE79F
:102B40004FF0FF30014A10600846E6E738000020E9
:102B500010B590B000200E900F901C2218A107A86D
:102B6000FDF71CFB18221DA101A8FDF717FB25E0AE
:102B70001C2107A8FDF7CCFD05211E48FDF7C8FD67
:102B800000F09CFE1C4988611C480068002801DA9E
:102B9000FFF7E8FB152101A8FDF7BAFD164881698A
:102BA0000EA8FFF7F5FA044621460EA8FDF7B0FD82
:102BB00003211348FDF7ACFD10B010BDD8E70000AD
:102BC000456E746572206C696D697420616363750C
:102BD0006D756C6174696F6E3A0D0A004C696D69B0
:102BE0007420616363756D756C6174696F6E3A20F2
:102BF000000000001B0000207802002038000020A8
:102C00001800002000F03EFEFDF76DFBFDF7DEFD35
:102C1000FDF76AFFFDF7FAFDFEF7AEFA1D20FDF79E
:102C200015FE19E00D48007848B1FDF7EFFDFEF7FD
:102C3000A3FA1D20FDF70AFE002008490870084885
:102C40000068012802D1FFF76DF905E0044800682B
:102C5000022801D1FFF752FBE4E700000900002041
:102C6000780200202DE9F04D1D460C4698B017461D
:102C700021F0004123F00043002814BF4FF0010C65
:102C80004FF0000C0CEB440CFE4A0CEB02064FEA32
:102C9000620C66452BD33E0018BF012606EB4506A5
:102CA0001644F94A964222D3F84A53EA070C02D056
:102CB000944205D148B918B000201146BDE8F08D06
:102CC000002808BF4FF0000C01D04FF0010C0CEBB6
:102CD000440212F5001F0AD8002F14BF4FF0010C58
:102CE0004FF0000C0CEB450212F5001F07D918B08D
:102CF0003A462B462146BDE8F04DFFF702B80022C8
:102D0000DFF88CA3002CB8BF534526DADFF884C364
:102D10006345A8BF022220DADFF870C39C451CDCA3
:102D2000DFF874C30CEB235CBCF1140F08DDCCF1AD
:102D3000340627FA06FC0CFA06F6BE420DD108E06E
:102D40005FB9CCF1140623FA06FC0CFA06F69E4293
:102D500003D10CF00102C2F1020251EA000C19D1B8
:102D6000002D17DA002C18BF022A01D0012A07D043
:102D70000220FDF774FA18B0BDE8F04DFEF7B6BFBB
:102D80000220FDF76CFAFEF7B1FF18B081F00041A8
:102D9000BDE8F08DB7F1000C6CD1534525D104F19D
:102DA000804212F5801201BF00280020B74918B0F8
:102DB00008BFBDE8F08DB548884207DC002DA1BFF3
:102DC0006046294618B0BDE8F08D07E0281E05DAF8
:102DD00080F0004118B06046BDE8F08DAF497944FD
:102DE000D1E9000118B0BDE8F08DDFF8A0C263455D
:102DF00025D1002D1FDA19B1514512D1D8B909E0FA
:102E0000002840F0EC82A24A214618B062F31E016D
:102E1000BDE8F08D0020214618B060F31E01BDE82A
:102E2000F08D08DA18B02346BDE8F04D02460020C8
:102E3000614601F035B818B02146BDE8F08D514526
:102E400018DAB5F1804F0DD0A5F1005CBCF1FF5C44
:102E500010D1B4F1000C0DDB18B06146BDE8F04DA7
:102E600000F0A2BE234618B00246BDE8F04D194658
:102E700001F032BA060024F0004C3BD1D9B15145E3
:102E800033D1002C06DD002DA1BF0020514618B023
:102E9000BDE8F08D002C01DD002D1BDB002C13DACA
:102EA000002D11DB012A4FF0000014BF78497C4946
:102EB00018B0BDE8F08D022A18BF002C0AD0012AF4
:102EC00008D1002C06DA0AE0002CB8BF002D11DA78
:102ED000012A04D0002018B00146BDE8F08D18B0DA
:102EE00000204FF00041BDE8F08DA1F14050B0F15D
:102EF0007F601AD0012000EBE47050EA020421D078
:102F0000624C521E4FF0000B104304BF4FF0000BF9
:102F1000644C654883427CDD644A654893421FDD0A
:102F2000884217DB002D25DB37E0002C00DA4AB1A0
:102F3000022A0CBF01204FF0FF3018B0BDE8F04D61
:102F400001F063B90120FDF78AF918B0BDE8F04D32
:102F5000FEF7D9BE4D4A8A4202DC002D0ADC1CE095
:102F6000814202DA002D18DA04E0484B994220DD54
:102F7000002D12DD0220FDF772F9FEF7CAFE0546AC
:102F80000E46002253465846214601F0A5F918B0D6
:102F900066F31E012846BDE8F08D0220FDF75FF9BB
:102FA000FEF7BEFE0A46214618B062F31E01BDE8D8
:102FB000F08D00223046614601F0B4FB80460E469B
:102FC0006FF0010201F0B8FE4FF05532394B01F0BD
:102FD000B7FA4246334601F07FF90022364B01F042
:102FE000AFFA82464246334604911046194601F034
:102FF00073F95246049B01F06FF98A4600904FF036
:10300000C0422E4B4046314601F066F92C4A2B4B0C
:1030100000E027E0CDE906015146009801F05CF997
:1030200082460191274A284B4046314601F054F927
:103030005246019B01F076FB82460B460246059103
:10304000DDE9060100F070FEDDE906230026884672
:10305000304601F067FB5246059B01F071FA0246CB
:1030600000F07EB90020B1F5801F07DA3522304626
:10307000614601F061FE06466FF0340000EB21501E
:1030800024E00000FFFF1F00FFFF0F000000F03FE3
:103090000000F07F0000404301FCFFFF9E20000085
:1030A0000000F0FF0000F0BF0000E0410000F0432E
:1030B000FFFFEF3F5555D53F0000E03F4715F73F75
:1030C000FE822B6544DF5DF80BAE543EA0F2FF306C
:1030D0000190C1F3130040F07F6141F04051029133
:1030E000FE498842D8BF002004DDFD498142C8BFA7
:1030F000012001DD0D9008E000200D900198401C9A
:1031000001900298A0F5801002900299F548784449
:103110000B910D9900EBC100D0E900230F933046CD
:103120000A920B9901F0FEFACDE90601DDE90A21C8
:1031300030460F9B00F0F8FD02460B460020EA499E
:1031400000F0AEFE059102460B460090DDE9060157
:1031500001F0C2F81490E5488A464FF00008784420
:103160000299006812904FF0005040EA61010D98FA
:103170000F9B01EB804000F5002109910A9A1298FB
:1031800001F0D0FA32460B9B01F0DAF94246534681
:1031900001F0A2F80646029140465146099B129A58
:1031A00001F09AF8DDE9062301F0CAF93246029BE4
:1031B00001F0B8FA059B009A01F08EF80091149A7C
:1031C000049053461046194601F086F8064602461A
:1031D000C7480B46029106217844FEF7BBFCCDE9B7
:1031E0000510029B32461046194601F075F8DDE9DC
:1031F000053201F071F805910646534640461946DE
:10320000149A00F091FD009B049A01F065F8324693
:10321000059B00F089FDCDE9051042465346104656
:10322000194601F059F80022B24B02910A9000F0C1
:103230007BFDDDE9053200F077FD0E464246AD4BE1
:10324000404601F06FFA029B0A9A01F06BFADDE941
:10325000053201F075F9424602910A903346104654
:10326000514601F039F8CDE906015346149A029906
:103270000A9801F031F88A46029033464246009996
:10328000049801F029F85346029A00F04DFD824659
:103290000B4602460591DDE9060100F045FDDDE93A
:1032A000062300208846064601F03CFA5246059B5C
:1032B00001F046F9824609914FF060428E4B30464C
:1032C000414601F009F8049006918C4A8A4B504619
:1032D000099901F001F882460291894A894B3046EA
:1032E000414600F0F9FF5246029B00F01DFD864B5F
:1032F0007B440D9A03EBC203D3E9002300F014FDD5
:103300000E900791019800F080FF0591DDE906130A
:1033100082460E9A049800F007FD7C4A7A440D9B81
:1033200002EBC303D3E900230093029200F0FCFCFC
:103330005246059B00F0F8FC00268846524630466F
:10334000059B01F0EFF9009B029A01F0EBF9069B57
:10335000049A01F0E7F9079B0E9A01F0F1F8024692
:1033600000200B4602903846294600F0B5FF824601
:1033700001912B4638461946029A01F0D3F932469C
:10338000434600F0A9FF5246019B00F0CDFC0746E2
:103390008A46324643462946029800F09DFF05467C
:1033A0000E463A46534600F0BFFC594A88469142C1
:1033B00021DBA8EB020353EA000210D12A46334670
:1033C00001F0B0F9CDE90401524A534B3846514659
:1033D00000F0AAFCDDE9042301F07CF821D20220F0
:1033E000FCF73DFFFEF795FC0A46214618B062F354
:1033F0001E01BDE8F08D494B28F000429A4210D3DF
:10340000474A08EB020353EA00027FF4C6AD2A469E
:10341000334601F087F93A46534601F05BF87FF6F0
:10342000BCAD0022019228F000403E493E4A01EB2B
:103430002051824223DA481C4FF4801121FA00F017
:1034400040443A4AC0F30A517A44394BA1F2FF3161
:10345000CB4020EA0303C0F3130040F48010C1F115
:103460001401C84012680190B8F1000FBCBF40427F
:1034700001902846314601F055F905460E462A4688
:1034800033463846514600F04FFC4FF000084246A4
:10349000284B4046059100F01FFFCDE90601264A62
:1034A000264B4046059900F017FF009102902A46EE
:1034B00033464046059901F035F93A46534601F046
:1034C0003FF81F4A1F4B00F007FF009B029A00F0D5
:1034D0002BFC0746884602460B4635E08E980300D3
:1034E0007AB60B00B61C00000000F03F1E1D000065
:1034F0001C1C00000000084009C7EE3FFD033ADC39
:10350000F5015B14E02F3EBEF41A0000B81A00006B
:1035100000009040FE822B654715973C00CC904000
:1035200000346F3F01FCFFFF0000E03F341A000051
:10353000FFFF0F00432EE63F396CA80C615C20BEF4
:10354000EF39FAFE422EE63FDDE9060100F0ECFB22
:10355000DDE9062305460E4601F0E4F83A46434607
:1035600000F0EEFF0F462A463346009010461946FB
:1035700000F0B2FE824602462E4888460B460521E0
:103580007844FEF7E7FA5246434600F0A5FE2A4685
:10359000334600F0D5FF80468A463B4628463146F2
:1035A000009A00F099FE3B46009A00F0BDFB0691A0
:1035B000009000224FF080434046514601F0B2F89F
:1035C0000F460C90424653462846314600F084FE92
:1035D0003B460C9A00F064FC069B009A01F0A2F8AE
:1035E0002A46334601F09EF80022134B00F0A8FF54
:1035F000054601980E4601EB00510815002810DC25
:1036000028463146019A01F097FBFEF74CF8042852
:1036100008BFFEF785FB28463146019A01F08CFB76
:1036200005460B4618B02A4658462146BDE8F04DDF
:1036300000F052BEA41800000000F03F10B515A025
:10364000FEF71CF822A0FEF719F826A0FEF716F8E0
:103650002EA0FEF713F839A0FEF710F841A0FEF7F0
:103660000DF84EA0FEF70AF857A0FEF707F861A084
:10367000FEF704F866A0FEF701F86DA0FDF7FEFF67
:1036800073A0FDF7FBFF78A0FDF7F8FF7BA0FEF726
:1036900003F810BD0A095465726D696E616C206F84
:1036A000662074686520626C6F636B206F662070A3
:1036B000726F63657373696E67206F6620746865E7
:1036C00020726164696F2073656E736F722E0000E3
:1036D000205B315D2053656C656374206D6F64659C
:1036E00000000000205B325D205365742074797007
:1036F00065206F6620746865206D6F64756C6174F9
:10370000696E6720766F6C7461676500205B335D5E
:1037100020536574206672657175656E6379206FDC
:103720006620746865206D6F64756C6174696E677E
:1037300020766F6C7461676500000000205B345D6B
:10374000205365742073697A65206F6620746865FC
:1037500020627566666572206F6620636F756E7491
:10376000696E6700205B355D20536574206D61785C
:10377000696D756D20616D706C6974756465206F1D
:103780006620746865206D6F64756C6174696E671E
:1037900020766F6C7461676500000000205B365D09
:1037A0002053657420636F6E7374616E74206F664E
:1037B00020746865206D6F64756C6174696E672034
:1037C000766F6C7461676500205B375D20536574AC
:1037D00020636F6E7374616E74206F662074686509
:1037E000206D6F64756C6174696E6720766F6C74A0
:1037F00061676500205B385D20536574206C696DDE
:10380000697420616363756D756C6174696F6E00B6
:10381000205B395D205365742061646A7573746D33
:10382000656E7420636F656666696369656E7400B2
:103830005B31305D205365742064656661756C741E
:1038400020636F6E66696775726174696F6E0000E0
:103850005B31315D2047657420636F6E6669677503
:10386000726174696F6E00005B31325D204578696A
:1038700074207465726D696E616C00000D0A3E3EC5
:103880002000000001200B49086040F2FF70086131
:103890002020C8606420C86140F2FF7008625F2089
:1038A000087569204875044888600A2088610120ED
:1038B0004860704778020020A086010030B585B0CE
:1038C00014216846FCF79CFC00240025142168465E
:1038D000FCF7DCFE044603210548FCF719FF2146EE
:1038E0006846FEF7BBFC0546284605B030BD000023
:1038F0001800002010B592B0012428222DA108A89C
:10390000FCF74CFC1C2235A101A8FCF747FCFCF796
:1039100033FFFDF7A1FD42E0FFF790FEFFF7CEFF7A
:103920000D2833D2DFE800F032070A0D1013161904
:103930001C1F22292C0000F067F82FE000F05AF934
:103940002CE0FEF7CFFE29E0FEF782FA26E0FEF734
:10395000EFF923E0FEF7B2FB20E0FEF71BFE1DE0CF
:10396000FFF7F6F81AE0FEF741FB17E0FFF78AFFD2
:10397000272108A8FCF7CCFE10E0FEF721FF0DE0A0
:103980001C2101A8FCF7C4FE002407E018211A48F6
:10399000FCF7BEFE00201949086000BF00BF002CE4
:1039A000BAD100211648FDF7D5FD01201549087050
:1039B00012B010BD5365742064656661756C742027
:1039C000636F6E666967757261746F6E207375637D
:1039D00063657366756C6C210D0A00004578697427
:1039E000207465726D696E616C20737563636573B5
:1039F00066756C6C210D0A00200000203800002044
:103A0000000003400900002010B59CB03C2226A114
:103A10000DA8FCF7C3FB33A103C9CDE90B0133A308
:103A20000FCB07AC0FC4182228A101A8FCF7B6FBE6
:103A300038E03B210DA8FCF76BFE05212F48FCF771
:103A400067FEFFF73BFF04462D480068002802DAB6
:103A5000FEF788FC26E00CB9012000E00020022CD3
:103A600001D9012100E00021084330B16FF00800C6
:103A700023490860FEF776FC14E022480460072121
:103A80000BA8FCF745FE012C04D10F2107A8FCF779
:103A90003FFE05E0022C03D1172101A8FCF738FEF8
:103AA0001CB010BDC5E7000053656C656374206DE4
:103AB0006F64653A0D0A5B315D20526164696F2065
:103AC00073656E7365720D0A5B325D2044697374B1
:103AD000616E6365206D6561737572656D656E7489
:103AE0000D0A00004D6F64653A2000005261646960
:103AF0006F2073656E7365720D0A00001B00002055
:103B0000380000207802002000B5254B21F000424B
:103B100087B09A4203DC0022134600922BE0214B2F
:103B20009A4208D140B94FF00100FCF798FBFEF72C
:103B3000EAF807B000BD03DBFEF7E0F807B000BD10
:103B400002AAFDF7C5FD10F003014FF001000DD0F2
:103B5000012914D002291AD00DF1080C9CE80F009D
:103B6000FDF77AFF07B081F0004100BD0DF1080CB0
:103B700000909CE80F00FEF743F807B000BD0DF180
:103B8000080C9CE80F00FDF767FF07B000BD0DF1C2
:103B9000080C00909CE80F00FEF732F8E2E7000006
:103BA000FB21E93F0000F07F2DE9F04106460F467A
:103BB00000F0D2FC041E0D4618BF0120284320F05F
:103BC0000040C0F17F6000F1E040C00F0ED0301C1B
:103BD00018BF0120384320F00040C0F17F6000F1A1
:103BE000E040C00F04BF0120FCF739FB2046294606
:103BF000BDE8F08130B59DB000201B901C904422A0
:103C000022490AA8FCF7CAFA242221A101A8FCF73C
:103C1000C5FA39E044210AA8FCF77AFD05212548B8
:103C2000FCF776FDFFF74AFE0446234800680028AB
:103C300002DAFEF797FB27E0032C01D9012000E010
:103C400000200CB9012100E00021084330B16FF0E1
:103C5000010019490860FEF785FB15E0174844602C
:103C6000212101A8FCF754FD144841681BA8FEF768
:103C70008FFA054629461BA8FCF74AFD0321104888
:103C8000FCF746FD1DB030BDC4E700005C500008E5
:103C900054797065206F6620746865206D6F647557
:103CA0006C6174696E6720766F6C746167653A2029
:103CB000000000001B0000203800002078020020D7
:103CC0001800002021F00042A2F16052B2F5801FDE
:103CD00001F0004328BFD2F17F6C0BD95FEA001CD2
:103CE00043EAC20242EB507018BF704728BF20F071
:103CF00001007047B2F5801FBCBF184670474FEAFD
:103D0000410C1CF5001F02D2084600F0DEBF70B562
:103D100000F08CFB00000089FFF7F6BF4FF0004079
:103D2000A0F580007047000010B591EA030F48BF6E
:103D300083F0004300F1FE84841A71EB030C05D27A
:103D4000121943EB0C03001B61EB0C01DFF824E1BB
:103D50004FEA1154A4EB135C1EEA430F18BF9EEA0E
:103D6000445F73D023EA0E03DCF1200E21EA0451F4
:103D700043F4801332D322FA0CFE10EB0E0023FA28
:103D80000CFE41EB0E01CCF1200E03FA0EFE10EBFF
:103D90000E0051F10001B1F5801FCCF1200E32D29E
:103DA00001EB045112FA0EF2BDE8104058BF704703
:103DB000401C38BF5FEA420218BF7047002814BF9A
:103DC00020F0010041F100014FEA410313F5001F0B
:103DD00038BF7047A1F1C04100F076BB012A43EB28
:103DE0000302ACF1200CDCF11F0E32BF4FF0000ECD
:103DF00023FA0CF310EB030041EB0451B4EB115F19
:103E0000D0D0A1EB045101F5801149085FEA3000E0
:103E100001EB04510ED350F1000038BF12FA0EFE30
:103E200008D1BDE81040C9E7401C38BF5FEA420234
:103E3000CAD1C3E7BDE810404FEA410313F5001FA4
:103E400038BF7047A1F1C04100F03EBB9EEA445F1D
:103E500008D011EA5E0FBDE8104004BF01F0004138
:103E600000207047BDE8104070B500F0DFFA00BFD9
:103E700064FBBE3E0000E0FF02494FF0000000F08E
:103E800029BF00BF0000F87F491058BFC1F1404171
:103E90005B1058BFC3F140438B42EFF30080704783
:103EA0002DE9C04130B4DFF8A0C23CEA111418BFBC
:103EB0003CEA131400F0EC8081EA03051CEA1114BB
:103EC00044EAD57418BF1CEA131500F0C780A4EBB0
:103ED00005044FF0004545EAC12145EAC32341EA04
:103EE000505143EA525304F17F74994204F500346F
:103EF0004FEAC0204FEAC22208BF904200F09C80E7
:103F00004FEA13650FF24016765D4FEA134506FB44
:103F100005F7C7F1807706FB07F74FEAD737A7FB0E
:103F200003687642C8F58038A7FB06CE38BFA8F1F3
:103F3000010807FB08E64FF0000EA6FB028CE6FB2B
:103F400003CEDCF1000CCEF1004E38BFAEF1010E15
:103F5000A6FB0C584FF000074FF00005E6FB0E875C
:103F6000A1FB08C6A0FB07CE16EB0E0645F1000527
:103F7000E1FB076515F1E04E7EBFA4F580345FEAF2
:103F800046066D4116F1800745F100054FEA1727F7
:103F90004FEA066647EA0567A6F1DE46B6F1805F9E
:103FA0004FEA15251FD9384624F0010C05EBC471E2
:103FB000BCF1FE6F01EB0C1102D8F0BCBDE8008132
:103FC00024425CBF01F5801E9EEAC47F02D4F0BC8F
:103FD000BDE80081244238D4F0BCA1F1C041BDE865
:103FE000004100F071BA4FEAD22242EA43524FEA4E
:103FF000D323A7FB02864FEAD02040EA415007FBBB
:1040000003661EEA0E0F4FEAD12105FB026658BF78
:10401000A6EB0056B6EB00564FEA520E4EEAC37EB0
:1040200018EB0E0E56EB530EBDD518EB02085E4191
:104030007F1C55F10005B6E74FF480154FF00007DF
:104040004FF000064FF00008ADE7F0BC4FF0000065
:1040500001F1C04101F00041BDE8008111EA0C1FEF
:104060000CEA131500D00CE013EA0C1F00F02580B9
:104070004FF00000F0BC81EA030101F00041BDE80F
:104080000081F0BCBDE8004181EA030100F01CBAE8
:10409000F0BCBDE8004170B500F0C8F9097EFC3EF7
:1040A00000F007B881EA03014FF0000001F0004181
:1040B000704781EA030100F007BAF0BCBDE8004197
:1040C0004FF0000021497047FFFDFBF9F7F5F4F2CE
:1040D000F0EEEDEBE9E8E6E4E3E1E0DEDDDBDAD8A3
:1040E000D7D5D4D3D1D0CFCDCCCBCAC8C7C6C5C401
:1040F000C2C1C0BFBEBDBCBBBAB9B8B7B6B5B4B318
:10410000B2B1B0AFAEADACABAAA9A8A8A7A6A5A402
:10411000A3A3A2A1A09F9F9E9D9C9C9B9A999998C6
:104120009797969595949393929191908F8F8E8E69
:104130008D8C8C8B8B8A89898888878786858584F6
:1041400084838382828181800000FF070000F87FE2
:104150004FEA41034FEA5353A3F58063D3F11E03A3
:10416000C8BFD3F1210C0CDD4FF0004242EAC1225E
:1041700042EA505232FA03FC8CEAE17CACEBE1708B
:104180007047102BC4BF0020704703F5787CBCF14A
:10419000FF3F04D06FF0004282EA2100704770B503
:1041A00000F044F94992248000207047F2E70000B3
:1041B0004FEA1153A3F58063D3F11E03A8BFD3F1D7
:1041C000200C08DB4FF0004242EAC12252EA505272
:1041D00032FA03F0704709420BD4102BC4BF002001
:1041E000704703F5787CBCF1FF3F05D04FF0FF30FE
:1041F00070474FF00000704770B500F017F900BF2E
:104200004992248000207047F0E710F0004248BF38
:104210004042B0FA80F310FA03F10AD0C3F11D0353
:1042200003F580634FEA415002EB035202EBD121C8
:1042300070474FF000007047B0FA80F310FA03F1B6
:104240000AD0C3F11D0303F580634FEA41504FEAE2
:10425000035202EBD12170474FF00000704700007D
:1042600051EA030C17D41CF5801F58BFBCF5801F02
:1042700000F10680994218BF704708BF904270470E
:1042800007D711F5801F58BF13F5801F19D4994225
:104290007047894270471CF5801F08D5BCF5801F08
:1042A000F7D58B4218BF704708BF824270474FF462
:1042B000001C1CEB410F38BF1CEB430F01D28B429B
:1042C000704770B500F0B2F8922449004FF00051E9
:1042D0004FF08053FFF7D8BDDFF848C170B51CEA36
:1042E000111E1EBF1CEA13159EEA0C0F95EA0C0F57
:1042F00000F06F8081EA030423EA4C134EEAD47E77
:1043000021EA4C1141F4801143F48013AE44A1FB27
:10431000024CA0FB0365AEF17F7E361955EB0C0510
:10432000A1FB034C4CF10003A0FB021C16EB0C0696
:10433000654153F10003094218BF46F0010613F42A
:10434000007F0BD14FEA03314FEA0530340341EAD5
:10435000155140EA16506FF003020AE04FEAC321FC
:104360004FEAC520F40241EA555140EA56506FF039
:10437000020202EB2E4201EB025585EACE710AD011
:104380005FEA440C18BF24F0004450F1000041F1F2
:10439000000120EAD47040F2FE7C624500D270BD7C
:1043A000A84214BF4FF080444FF04044002E08BF95
:1043B0000024BEF1806FA8BFA1F1C041BDE87040EC
:1043C00080F282804FF0000001F1C04101F0004115
:1043D00070479EEA0C0F0CEA131518BF95EA0C0FF4
:1043E00006D04FF0000081EA030E0EF0004170BDD0
:1043F00000F01CF88900013E00F007B800F009B891
:104400004FEA430C5FEA5C5C08D081EA030100F0EC
:104410005BB84FEA410C5FEA5C5CF6D14FF00000FC
:10442000014970470000FF070000F87F0EF1020EFF
:104430002EF0030E5EF8046B364205D4012A43EBDE
:10444000030515F5001F12D8012841EB010C1CF5DE
:10445000001F0CD80ED14FEAD17C15F5001F0CEBD4
:104460004C0C0CF1020C08BF4CEBD37C04E04FF079
:10447000080C01E04FEAD37C0CEB4C0526FA05F65C
:1044800006F00706B6F1040C06D20EEB860CBDE86A
:1044900070404CF0010C6047DFE80CF0090B0202A1
:1044A0004FF000414FF00000A1F5002170BD19460A
:1044B0001046012851EB010418BFD4F5001484BF45
:1044C000002001F0004170BD0808A0F500114FEA7E
:1044D0003101704753EA010C17D41CF5801F58BFF7
:1044E000BCF5801F00F106808B4218BF704708BFE3
:1044F0008242704707D713F5801F58BF11F5801F00
:1045000019D48B4270479B4270471CF5801F08D519
:10451000BCF5801FF7D5994218BF704708BF90427D
:1045200070474FF4001C1CEB430F38BF1CEB410FCE
:1045300001D2994270470FB40CBC03BCFFF7C1BE57
:1045400091EA030F10B581F000413FF5F5AB83F020
:10455000004300F0EFB800002DE9F04101F5801CA8
:10456000BCF5001FC0F2C3804FEA115C21EA0C5178
:104570000CF1FD0C41F480115FEA5C0C0CF5C07C81
:1045800001D3400049413DA4890241EA905187028C
:104590008E0E0A0CA45D04FB04F602FB06F6C6F1BF
:1045A0004046A4FB0662F60D46EA422606FB06F4E8
:1045B000A4FB01235242C3F1404338BF5B1EA6FB5C
:1045C00002420024E6FB0324D20B42EA4446A6FB47
:1045D0000623A1FB02E2A3FB07E4A4184FF00002AC
:1045E00052F10002E3FB01426442C2F1404E38BF87
:1045F000AEF1010EA6FB04234FF00002E6FB0E32E3
:10460000A2FB03464FF00004B61954F10004E2FB8C
:104610000264A1FB06E6A4FB07E816EB08064FF0D0
:10462000000858F10008E4FB01687642C8F14058E0
:1046300038BFA8F10108A2FB06E4A3FB08E52D1989
:104640004FF0000454F10004E2FB0854A1FB05E61E
:10465000A7FB04E818EB06084FF0000656F1000629
:10466000E1FB048618F1200556F10006A809A8F11F
:104670001B08B10908F03F08B8F10A0F40EA86604C
:104680001CD901EB0C51BDE8F08100BFFCF5EEE850
:10469000E2DDD8D3CFCBC7C3C0BDB9B6B4B1AEACE1
:1046A000A9A7A5A3A19F9D9B9A9896959392908F59
:1046B0008D8C8B898887868584838281A0FB0068A6
:1046C00000FB01F208EB4208B8EB872807D5341845
:1046D00058EB0104D5D5401C51F10001D1E7341A43
:1046E00078EB0104CDD4401E71F10001C9E75FEA07
:1046F0004C0C5FEA9C5C0DD105D34FF0000001F03B
:104700000041BDE8F081BDE8F04170B5FFF78EFED5
:104710006DDBFFBEBDE8F0414FF00000004970477F
:104720000000F87F10B591EA030F48BF83F0004303
:104730003FF502AB841A71EB030C07D212198CF00F
:10474000004C43EB0C03001B61EB0C01DFF8A4E110
:104750004FEA1154A4EB135C1EEA430F18BF9EEA04
:10476000445F00F0B08023EA6E03524221EA045114
:10477000C3EB6E0338BF5B1EDCF1200E25D322FA9B
:104780000CFE10EB0E0043FA0CFE41EB0E01CCF1D7
:10479000200E03FA0EFE10EB0E0051F10001CCF1D9
:1047A000200E29D412FA0EF201EB0451BDE810409C
:1047B00058BF7047401C1CBFB2F1004F7047002823
:1047C0000CBF491C20F00100704712EB020E43EBB6
:1047D000030218BF4FF0010E4EEA4202ACF1200C6A
:1047E000DCF11E0E54D943FA0CFE10EB0E0051F111
:1047F000FF31CCF11E0ED5D50EF1010E12FA0EFED0
:10480000404141EB010101EB445C5FEA5C5C10D983
:1048100010EBDE7001EB045138BFBEF1004FBDE874
:10482000104018BF704700280CBF491C20F0010041
:10483000704730D24FEAD42C11F5001124F40064F3
:104840001BD0B1FA81F20B3AA41AA41ED2F12003B4
:10485000914030FA03F31943904001EBCC71002CE6
:1048600001EB0451BDE81040A8BF704701F1C04101
:104870004FF0000001F000417047B0FA80F310FAE9
:1048800003F100D110BDE41A173C4805C90AE4E75A
:1048900001EB045110BD491001EB0451BDE810407B
:1048A0004FEA300002E04FF0000170474A0008BFB5
:1048B0000042F8D0B2F5001F28BF704701F0004158
:1048C0004FF0000070479EEA445F07D011EA5E0F88
:1048D000BDE8104004BF002100207047BDE8104033
:1048E00070B5FFF7A3FD00BF40DFF63E83F0004147
:1048F000104670470000E0FF43004FEAD30C4FEA38
:104900003C0C43401FBF40070CF1605113F0FE4FB9
:1049100070471CF0006F03D100200CF0004170477D
:104920000CF0004343EA507010B540EACC0000F0B0
:1049300086F900BF000000924FEA0001FFF7C4BDF6
:104940004FF000414FF00000A1F50021704700003A
:104950004FF47F0C1CEAD0121EBF1CEAD11392EA5E
:104960000C0F93EA0C0F00F0858090EA010F48BF0E
:1049700042F4807240F4000C41F400002CF07F41BE
:1049800020F07F4000B58142A2EB03020FF2081C29
:10499000ACEB504EC0F100009EF800E04FEA4E0E26
:1049A00000FB0EFC38BF49004FEA2C1C02F5FA024E
:1049B0000CFB0EF34FEACE1E4FEA112C4FEAC12139
:1049C0000EEB635E42EB22420EFB0CFC4FEA1C53E3
:1049D00000FB03114FEA112C4FEA01310EFB0CFCD6
:1049E0004FEADC4C00FB0C11C14228BF09184CEB0C
:1049F00003335DF804EB10EB410143EBC250B2F519
:104A00007C0F38BF704729D512F0F00F1CBF00F1A2
:104A1000C04000F000407047008182838485868713
:104A200088898B8C8D8E8F919293959697999A9C6D
:104A30009D9FA0A2A3A5A7A8AAACAEB0B2B3B5B7DC
:104A4000B9BCBEC0C2C5C7C9CCCED1D4D7D9DCDFB2
:104A5000E2E6E9ECF0F3F7FAFE0000004FEA400C62
:104A60000CF1807CBCF17E4F28BF7047B0F1C04094
:104A700000F02BB990EA010F0CEAD11348BF42F4C1
:104A80008072624538BF634507D213F47F0F16D09A
:104A900080EA010000F00040704710B500F0CFF848
:104AA000097EFC3E00F005B880EA010000F00040FD
:104AB000704780EA010000F0004000F006B912F4EF
:104AC0007F0F04BF0248704780EA010000F0FDB884
:104AD0000000C07FC10DD1F19E0206DB4FEA00232A
:104AE00043F0004323FA02F07047004207D54FEA33
:104AF0004001B1F1FE4F02D24FF00000704710B5F7
:104B000000F09DF849922480002070476FEA200051
:104B100070470000B0FA80F310FA03F2C3F19D036E
:104B20000AD0D90501EB1220530638BF704700F1B7
:104B3000010008BF20F00100704700004FF47F0C17
:104B40001CEAD0121EBF1CEAD11392EA0C0F93EAA2
:104B50000C0F00F0478090EA010F48BF42F48072CA
:104B60004FF0004C4CEA00204CEA012102EB03021A
:104B7000A0FB0113A2F50002002918BF43F00103B6
:104B80005B0028BF4FEA330342EB22425FEA132C5B
:104B90004CEBC2502EBFBCEB436FB2F57C0F70479D
:104BA0004FEA036CBCF1004F08BF20F00100B2F5E2
:104BB0007C0F38BF70470BD582F0FF0212F5803FA3
:104BC000C8BF704700F1C040D8BF00F00040704738
:104BD00000F5000C5FEA4C0C48BF7047B0F1C040D4
:104BE00000F073B890EA010F0CEAD11348BF42F409
:104BF0008072624538BF634504D280EA010000F04C
:104C00000040704710B500F01AF800BF8900013E5F
:104C100000F007B800F009B85FEA410C5FEA1C6CCD
:104C200008D080EA010000F050B85FEA400C5FEA6B
:104C30001C6CF6D14FF00040A0F5800070470EF1DB
:104C4000020E2EF0030E5EF8044B244204D44FEA09
:104C50004102B2F17F4F11D84FEA4003B3F17F4FC9
:104C60000CD80ED14FEAD07CB2F17F4F0CEB4C0C3C
:104C70000CF1020C08BF4CEBD17C04E04FF0080CA7
:104C800001E04FEAD17C0CEB4C0324FA03F404F06E
:104C90000704B4F1040C06D20EEB840CBDE81040FE
:104CA0004CF0010C6047DFE80CF0070802024FF0FF
:104CB0000040A0F5800010BD0846420018BFD2F1A8
:104CC000807288BF00F0004010BDFF2141EAD05043
:104CD000C00570470CF00F03092B08BF082000F037
:104CE00059800A2B0BD0082B18BF704708BF1CF047
:104CF000400F0AD04FF000004FF0000170471CF049
:104D0000400F18BF4FF0004070471CF0100F08D044
:104D100020F0704300F07F4242EAD3014FEA437033
:104D2000704700F0604021F07F4242EA000201F04B
:104D30007F4040EA727070474FF0FF0C4CF4E06C1B
:104D40001CEA11531CBF9CEA030C9445C2BFDA4213
:104D500001EB02517047002B0DD0BCF1000F0FD0BA
:104D6000002A01F00041A4BF41F0E04141F07F6121
:104D70004FF00000704701F000414FF00000704715
:104D800050EA01334FF09B0C18BF4CF0806C7FF45D
:104D900073A870471CF4801F11D01CF4E02F03D0BF
:104DA0006FEACC31490070474FF04050EFF300827A
:104DB00022F0704242EA000282F3008870474FF00E
:104DC0000000704700000000000000000000F03FFD
:104DD000000000000000F83F00000000000000009C
:104DE0000000004003B8E23F0000000000000000A7
:104DF00006D0CF43EBFD4C3E033333333333E33F35
:104E0000FFAB6FDBB66DDB3F4D268F515555D53F60
:104E100001411DA96074D13F65DBC9934A86CD3F2E
:104E2000EF4E454A287ECA3F3E5555555555C53F1C
:104E300093BDBE166CC166BF2CDE25AF6A56113F0E
:104E4000F16BD2C541BDBBBED0A4BE726937663E10
:104E50004C5555555555A53F7751C1166CC156BF98
:104E60009015CB19A001FA3EAD529C804F7E92BEA8
:104E7000C4B1B4BD9EEE213ED43888BEE9FAA8BDC7
:104E8000000000000000000000004054FB21F93F3A
:104E90003163621A61B4D03D0000601A61B4D03D44
:104EA0007370032E8A19A33B0000002E8A19A33BBE
:104EB000C14920259A837B390000000000000000D2
:104EC0006E83F9A22915444ED15727FCC0DD34F575
:104ED000999562DB4190433CAB6351FE61C5BBDEFB
:104EE0003A6E24B7E0D24D42EA2E49061C92D1090F
:104EF0001CEB1DFE3EA729B1F53582E88444BB2E8C
:104F000026709CE9417E5FB439D69139F4395383D8
:104F10008B5F849C3B28F9BDFF97F81F0F9805DE37
:104F20008B112FEF1F6D0A5ACF7E366DB709CB2735
:104F3000663F464F2DEA5F9EC7BA27757BF1E5EBCA
:104F4000F739073DEA92528AB15FFB6B085D8D1F0E
:104F5000A6F810111111813FD561C119A0012ABF16
:104F60007DFEB157E31DC73EEB9C2B8AE6E55ABE9A
:104F70007CD5CF5A3AD9E53D6572726F7220636F66
:104F8000656641646A4572726F723A20496E636F5A
:104F9000727265637420636F656666696369656EC6
:104FA000742876616C75657320696E20746865205D
:104FB00072616E676520302D313030290D0A0A008C
:104FC0006572726F7220747970654D6F6465457299
:104FD000726F723A20496E636F72726563742074E7
:104FE000797065206D6F64652876616C75657320D6
:104FF000696E207468652072616E676520312D339B
:10500000290D0A0A000000006572726F7220616D3E
:10501000706C4D6F644572726F723A20496E636FA7
:10502000727265637420616D706C69747564652853
:1050300073696E7573202D206C6573732032303464
:10504000382C206F74686572202D206C6573732076
:1050500034303936290D0A0A000000005479706591
:10506000206F6620746865206D6F64756C6174696B
:105070006E6720766F6C746167653A0D0A5B315D0F
:105080002053696E75730D0A5B325D205361770D95
:105090000A5B335D20547269616E676C650D0A00AE
:1050A000C05000080000002040000000FC00000884
:1050B0000051000840000020200E000018010008E8
:1050C00000000000000000000000000000000000E0
:1050D00000000000000000000D0A000A3E3E200013
:1050E000556E737570706F7274656420636F6D6D4B
:1050F000616E64210D0A0A000000000000127A00AF
:040000050800015D91
:00000001FF
